:020000040800F2
:1000000000000220AD060008A9060008F94B000810
:10001000A9060008A9060008A906000800000000BB
:10002000000000000000000000000000A906000819
:10003000A906000800000000A90600087D4B000882
:10004000A9060008A9060008A9060008A9060008D4
:10005000A9060008A9060008A9060008A9060008C4
:10006000A9060008A9060008A906000851380008DA
:100070005D380008A90600086938000875380008CE
:100080005D4800087D2D0008A9060008A9060008A3
:10009000A9060008A9060008A9060008A906000884
:1000A000A9060008A9060008A9060008A906000874
:1000B000A9060008A9060008A9060008B12D000835
:1000C000A9060008BD2D0008A906000805F90008CA
:1000D000A90600084D420008F5420008A1430008A7
:1000E000A9060008A906000800000000A9060008EB
:1000F000A9060008A9060008A9060008A906000824
:10010000A9060008A9060008A9060008A906000813
:100110004D440008F9440008A9060008A906000893
:10012000A9060008A906000811F9000845F9000809
:10013000A9060008A9060008A9060008A9060008E3
:1001400000000000000000000000000000000000AF
:10015000A9060008A9060008A9060008A545000888
:10016000C92D0008A90600088D4B0008B14B0008F6
:10017000A9060008D54B0008A9060008A906000832
:10018000A9060008A906000851460008FD46000817
:10019000A9060008A9060008A9060008A906000883
:1001A000A9060008A9060008A9060008A906000873
:1001B00071350008A9060008A9060008A90600086C
:1001C000A9060008A9060008DD280008E92800089B
:1001D000A9060008F5280008A9060008A9060008D5
:1001E000A9060008A9060008A9060008A906000833
:1001F000A9060008A9060008A9060008A906000823
:10020000A9060008A9060008A9060008A906000812
:10021000A9060008A9060008A9060008A906000802
:10022000A9060008A9060008A906000800000000A9
:10023000A9060008A906000800000000A906000899
:10024000A9060008A9060008A9060008A9060008D2
:10025000A9060008A9060008A9060008A9060008C2
:10026000A9060008A9060008A9060008A9060008B2
:10027000A9060008A9060008A94700080000000018
:10028000A9060008A9060008A90600080000000049
:0802900000000000A9060008AF
:1002A00010B5054C237833B9044B13B10448AFF3B0
:1002B00000800123237010BD100500240000000001
:1002C0008439010808B5034B1BB103490348AFF358
:1002D000008008BD000000001405002484390108D6
:1002E00001F0FF01102A2BDB10F0070F08D010F8E7
:1002F000013B013A8B422DD010F0070F42B3F6D1EB
:10030000F0B441EA012141EA014122F007047FF003
:1003100000070023F0E80256083C85EA010586EA5A
:10032000010685FA47F5A3FA87F586FA47F6A5FA96
:1003300087F68EB9EED1F0BC01F0FF0102F00702A2
:1003400032B110F8013B013A83EA010313B1F8D14D
:100350000020704701387047002D06BF354603382E
:10036000073815F0010F07D1013015F4807F02BF67
:10037000013015F4C03F0130F0BC0138704700BFB8
:1003800010F8012B11F8013B012A28BF9A42F7D03F
:10039000D01A7047034613F8012B002AFBD1181A14
:1003A0000138704753B94AB9002908BF00281CBF5B
:1003B0004FF0FF314FF0FF3000F074B9ADF1080C91
:1003C0006DE904CE00F006F8DDF804E0DDE9022373
:1003D00004B070472DE9F047089D04468E46002B77
:1003E0004DD18A42944669D9B2FA82F252B101FAE9
:1003F00002F3C2F1200120FA01F10CFA02FC41EAF9
:10040000030E94404FEA1C48210CBEFBF8F61FFA7D
:100410008CF708FB16E341EA034306FB07F1994218
:100420000AD91CEB030306F1FF3080F01F819942CB
:1004300040F21C81023E63445B1AA4B2B3FBF8F0A5
:1004400008FB103344EA034400FB07F7A7420AD92C
:100450001CEB040400F1FF3380F00A81A74240F254
:1004600007816444023840EA0640E41B00261DB1BF
:10047000D4400023C5E900433146BDE8F0878B42F4
:1004800009D9002D00F0EF800026C5E900013046B3
:100490003146BDE8F087B3FA83F6002E4AD18B428D
:1004A00002D3824200F2F980841A61EB0303012037
:1004B0009E46002DE0D0C5E9004EDDE702B9FFDE23
:1004C000B2FA82F2002A40F09280A1EB0C014FEACE
:1004D0001C471FFA8CFE0126200CB1FBF7F307FB2B
:1004E000131140EA01410EFB03F0884208D91CEBCE
:1004F000010103F1FF3802D2884200F2CB8043466B
:10050000091AA4B2B1FBF7F007FB101144EA014449
:100510000EFB00FEA64508D91CEB040400F1FF31D8
:1005200002D2A64500F2BB800846A4EB0E0440EAC6
:1005300003409CE7C6F12007B34022FA07FC4CEACF
:10054000030C20FA07F401FA06F31C43F9404FEAC2
:100550001C4900FA06F3B1FBF9F8200C1FFA8CFED7
:1005600009FB181140EA014108FB0EF0884202FA2B
:1005700006F20BD91CEB010108F1FF3A80F08880EC
:10058000884240F28580A8F102086144091AA4B2A9
:10059000B1FBF9F009FB101144EA014100FB0EFE2A
:1005A0008E4508D91CEB010100F1FF346CD28E4559
:1005B0006AD90238614440EA0840A0FB0294A1EBEA
:1005C0000E01A142C846A64656D353D05DB1B3EB47
:1005D000080261EB0E0101FA07F722FA06F3F14077
:1005E0001F43C5E9007100263146BDE8F087C2F11E
:1005F0002003D8400CFA02FC21FA03F39140014396
:100600004FEA1C471FFA8CFEB3FBF7F007FB1036CE
:100610000B0C43EA064300FB0EF69E4204FA02F47A
:1006200008D91CEB030300F1FF382FD29E422DD9CD
:10063000023863449B1B89B2B3FBF7F607FB163302
:1006400041EA034106FB0EF38B4208D91CEB010182
:1006500006F1FF3816D28B4214D9023E6144C91A02
:1006600046EA004638E72E46284605E70646E3E612
:100670001846F8E64B45A9D2B9EB020864EB0C0E1C
:100680000138A3E74646EAE7204694E74046D1E72B
:10069000D0467BE7023B614432E7304609E76444D9
:1006A000023842E7704700BFFEE700BF0B480C4A24
:1006B000904203D0121A0B4911F05CFA0A480B4A17
:1006C000904203D0121A002111F07CFA04F0B2FC1F
:1006D00011F01CFA00F012FBFEE700BF000000243E
:1006E0000C050024B43901081005002448950124A4
:1006F000704700BF704700BF704700BF9AB10368E2
:10070000406803EB820C10B40C68496853F8042B62
:1007100044F8042B634550F8042B41F8042BF5D121
:100720005DF8044B704770472DE9F04387B00446ED
:1007300098460F460E9D00F1100191460095C36842
:10074000426804A810F0CCFF9DF81030A3B92668C9
:1007500056F8273006EB8702002B47D01B68C8F8F5
:10076000003056F82730C3F80080E3684046013374
:10077000E36007B0BDE8F083059F012F5DD0B7F1BE
:10078000005F60D2BA001046039210F075FC039A25
:100790000021064611F016FA04F1180CA268002098
:1007A000A06082B1154612686968B1FBF7F307FBD8
:1007B000131156F821306BB31B682B6056F82130AB
:1007C0001D60002AEED1D4E90001844502D08900E1
:1007D00010F050FCB9FBF7F1C4E9006707FB119773
:1007E00056F8273006EB8702002BB7D1A368C8F86C
:1007F0000030C4F80880D8F800303BB15B6861680D
:10080000B3FBF1F001FB103346F8238004F1080339
:100810001360AAE7A3682B60234643F8085F46F8F5
:1008200021302B682BB146F820500846002AB9D158
:10083000C9E70846002AB5D1C5E72646002346F891
:10084000183FB446AAE710F0F5FE00BF00210522CC
:10085000244B2DE9F04100F1240582B0884607467B
:10086000009200F55174826A284611F099F8CDF88B
:10087000008001233A6C414607F13C0011F046F834
:100880000023CDF800804146FB664FF07E53BA6DE1
:1008900007F154003B670123464611F037F8204624
:1008A000294610F0D0FF04F1180005F1180110F0EE
:1008B000CAFFAB6C04F13000583444F8083C05F131
:1008C0003001EB6C503544F8043C10F0BCFF44F8A8
:1008D000106C013600230A2E44F80C3CDFD102B024
:1008E000BDE8F08144300108F0B5044608304E6898
:1008F00083B020600D460F68F74201D0002F74D0FE
:100900000F2E019642D8012E37D13B782372002357
:100910006660835504F12000EE69A061AF69F7427B
:1009200001D0002F61D00F2E01964ED8012E27D175
:100930003B7884F820300023E661835504F13800C9
:100940006E6B20632F6BF74201D0002F4DD00F2E1E
:1009500001962AD8012E16D13B7884F8383000232E
:1009600066638355A86CE96C2A6D6B6DA0642046A4
:10097000E1642265636503B0F0BD002EC7D00DE0D1
:10098000002ED8D02AE0002EE9D017E0002201A9DD
:10099000204610F0EDFE019B2060A36032463946F0
:1009A00011F0E8F8019E2068B1E7002201A904F1E6
:1009B000300010F0DDFE019B2063A3633246394610
:1009C00011F0D8F8019E206BC9E7002201A904F1BB
:1009D000180010F0CDFE019BA0612362324639461B
:1009E00011F0C8F8019EA069A5E7014810F025FEA6
:1009F0004C30010810B5002288B013490123044689
:100A0000CDE901120221CDE903324FF416520591CE
:100A100001A9CDE9063203F027FF012806D02046C0
:100A200003F0A4FF012809D008B010BD074801F069
:100A30007FFE204603F09AFF0128F5D1044801F01B
:100A400077FE08B010BD00BF01060107783001082D
:100A50008430010870B5856806461DB32C462D68A4
:100A6000A06B04F14003984203D0216C013110F0D7
:100A700001FB206A04F12803984203D0A16A0131E6
:100A800010F0F8FA234653F8080F0833984203D0C1
:100A90002169013110F0EEFA6021204610F0EAFAE7
:100AA000002DDBD1726800213068920011F08AF8C5
:100AB0000023C6E9023370BD10B50446FFF7CAFF34
:100AC000206804F118036168984202D0890010F090
:100AD000D1FA204610BD00BF70B5294B064600F57F
:100AE000517400F2B4650360583D286B05F138037A
:100AF000984203D0A96B013110F0BCFAA86905F146
:100B00002003984203D0296A013110F0B3FA2B4632
:100B100053F8080B984203D0A968013110F0AAFAE3
:100B2000A542E1D106F12405503C206B04F13803C5
:100B3000984203D0A16B013110F09CFAA06904F136
:100B40002003984203D0216A013110F093FA234622
:100B500053F8080B984203D0A168013110F08AFACB
:100B6000A542E1D1301DFFF775FF706806F11C0347
:100B7000B168984202D0890010F07CFA304670BD0E
:100B8000043101082DE9F0410E68074640688846A7
:100B90003B6882B0B6FBF0F500FB156553F82510F5
:100BA00071B10A6853689E4237D0146811463CB14F
:100BB00063682246B3FBF0F400FB1434A542F2D084
:100BC000602010F059FAD8F800304FF000080446C1
:100BD000436000F108034146C0F8008058221846DF
:100BE00010F0F0FF0346294604F12805083384F885
:100BF000108084F828803246A360012384F8408066
:100C0000384600932346256204F14005A563FFF7AB
:100C10008BFD083002B0BDE8F08108680028CFD015
:100C2000083002B0BDE8F0812DE9F84FD0E9008925
:100C30000F4692466FF06041A9EB0802B1EBA20F9C
:100C400054D093100646A7EB0805012B1C4638BF6D
:100C500001241C1948D2002C3CD1A346DAF80030FC
:100C6000002D4BF8053024DCA9EB07090435B9F158
:100C7000000F5D4413DC4D44B8F1000F04D1B460A3
:100C8000C6E900B5BDE8F88FB168A1EB08014046A0
:100C900010F0F0F9B460C6E900B5BDE8F88F284659
:100CA00039464A464D4410F065FFB8F1000FE6D0D2
:100CB000EAE7A9EB07092A4641465846043510F0F1
:100CC00067FFB9F1000F5D44E9DCB1684D44A1EB69
:100CD0000801DCE78C4228BF0C46A400204610F037
:100CE000CBF983460444B9E7024CF7E7024810F019
:100CF000A7FC00BFFCFFFF7F943001082DE9F04FF7
:100D00002DED028BDFED5E8AADF24C4D5D4818EEA5
:100D1000901A18EE904A00F009FB042159480DF58D
:100D2000896500F07FFA0321564800F05FFA5649C2
:100D3000544800F057FA012001F008FD5348FFF72E
:100D400059FE36AB002603F1080003F1200103F140
:100D500038021E7283F8206083F83860C3E9000609
:100D6000C3E90616C3E90C2658339D42EAD1484927
:100D700036A810F093FE4FF07E53324601213CA876
:100D8000499310F003FE36A909A822AFFFF7ACFD86
:100D90001B9B09A920A81F93FFF7A6FD602010F058
:100DA0006BF900F11003DDF87CC005460393836006
:100DB000209B0660BB42C0F804C000F069818360DC
:100DC000229B0361219B0DF1A00805F128062097C5
:100DD000EB6000232E6221938DF88830269B4345DB
:100DE00000F05D812B62289BAB62279B0DF1B80957
:100DF00005F1400ECDF898806B620023C5F838E00D
:100E000027938DF8A0302C9B4B4500F03681AB63C7
:100E10002E9B2B641F4B0022CDF8B0908DF8B8208C
:100E2000D3E9000A2D9B2D92EB63329BBCFBFAF1B8
:100E30000AFB11C150F821202B65339B6B65349B55
:100E4000AB65359BEB6592B110684368634523D071
:100E5000D0F800B00246BBF1000F08D0DBF8043038
:100E60005846B3FBFAFB0AFB1B3B5945EED0012069
:100E70002B46624600900748FFF756FC29E000BF6A
:100E80000000000044050024FD060008DC390124B0
:100E9000B0300108340C00241368002BE7D0A86B95
:100EA000864503D0296C013110F0E4F8286A8642A7
:100EB00003D0A96A013110F0DDF8A868039B8342D2
:100EC00003D02969013110F0D5F82846602110F0CF
:100ED000D1F82C98484503D02E99013110F0CAF86A
:100EE0002698404503D02899013110F0C3F8209886
:100EF000B84203D02299013110F0BCF8159817AD13
:100F0000A84203D01799013110F0B4F80F9811AF2F
:100F1000B84203D01199013110F0ACF809980BAE2A
:100F2000B04203D00B99013110F0A4F800230DF169
:100F3000B40A0DF19C090893CDE906335C4803F02F
:100F400045FD0028FAD05A4803F02CFD0490DDE955
:100F50000713994200F08C8041F8040B0791544824
:100F600003F034FD80460028E8D1514803F012FD1B
:100F7000DDE906329A42E1D018F0010F75D133F85D
:100F8000283008EE903AB8EE688A002305A949484F
:100F90000A938DF82C3010938DF8443016938DF809
:100FA0005C3009960F97159505948DED1C8AFFF717
:100FB000E9FD01461FA8FFF797FC05A93D488DED07
:100FC000328A0594FFF7DEFD83461FA910F03BFC33
:100FD00025A90BF1180010F036FC0BF130002BA9FD
:100FE00010F031FC319B2B98CBF84830329B5045A8
:100FF000CBF84C30339BCBF85030349BCBF854308B
:1010000003D02D99013110F035F82598484503D0CB
:101010002799013110F02EF81F9821AB984203D088
:101020002199013110F026F81598A84203D017999C
:10103000013110F01FF80F98B84203D01199013117
:1010400010F018F80998B04203D00B99013110F054
:1010500011F808F10108DDE90632D21AB8EBA20F47
:10106000BFF46CAF18F0010F89D033F828408AE73D
:1010700004AA06A8FFF7D8FD71E7CA46BAE80F0030
:101080002864CEF80410CEF80820CEF80C30C1E663
:101090003E460FCE28616961AA61EB6192E6C646C1
:1010A000BEE80F00A8627160B260F3609DE600BF09
:1010B000DC390124340C002438B53B4800243B4A79
:1010C0003B490460446104620FF05CFF394B3A48CD
:1010D000364A3A491C6004600FF054FF3849394BD6
:1010E0004FF60B724FF07E5001F5487C1A6001F10B
:1010F0001C02DC604A60012248618A600A4632486C
:10110000CC600C618C610860C3E901440B46C1E905
:101110000744002102F12C0502F1440402F15C00B5
:1011200082F82C1082F8441082F85C10C2E9095150
:10113000C2E90F41C2E9150150326245E9D1234DA0
:10114000002403F5537003F5597103F55F7283F8BA
:101150004C4383F8644383F87C43C3E9D104C3E977
:10116000D714C3E9DD245833AB42E9D10F4A1849FB
:1011700013480FF007FF17484FF07E53012200F18C
:101180001801C46003610160C4611349C0E901240E
:10119000C0E90544054A0FF0F5FE044A0F4910481E
:1011A000BDE838400FF0EEBE4405002400000024E6
:1011B000F9060008DC39012440050024F106000886
:1011C000800500242C05002404310108F0080024C7
:1011D000D90A0008340C0024B90A0008F5060008F2
:1011E000540C0024143001F0FFB900BF38B500F1F1
:1011F000140504462DED028B284601F0B1F928466E
:1012000001F0AAF92846B0EE408A01F093F9D0ED3A
:10121000007AF8EE677A88EE277ABDEC028B84EDCF
:101220000E7A38BD38B500F1140504462DED028B59
:10123000284601F083F9284601F08EF92846B0EEE1
:10124000408A01F077F9D0ED007AF8EE677A88EEFF
:10125000277ABDEC028B84ED0E7A38BDF0B50323FE
:1012600099B000270125129306462C4B09A8159525
:10127000CDE90E7340F20453ADF84030284BCDE970
:101280001357099301F03CFB09A801F015FC002855
:1012900035D1244B04AF04460090CDF842301023E2
:1012A000394604958DF820301F4BCDE91650CDE915
:1012B00006506846059301F08DFD0823009A01A9A8
:1012C00009A8ADF804508DF80640099402950393DF
:1012D00000F0E4F800230EA938463024049302F00D
:1012E00043FB03224FF07E5309A906F114000B9330
:1012F000CDE90942049A01F0EBF819B0F0BD40F6CF
:101300000132084B169704AFADF824200998CDF8A8
:101310004230179500F082F8DCE700BF04020404B5
:1013200003030001040604030704010B2DE9F04345
:1013300004462DED028B83B0002948D0012140F2F4
:10134000011200230091ADF804208DF80630304AD8
:101350000126304B271D304904F12908626040F214
:101360000272A36040F60663E16004F1250926825B
:10137000A4F8252084F82760A4F8293084F82B608D
:1013800003F00EFE6946054648B304F130008DF8BF
:10139000066003F06DFD072D34D104F114052046DD
:1013A000FFF75CFF284601F0D7F82846B0EE408AE8
:1013B00001F0C0F8D0ED007AF8EE677A88EE277A6F
:1013C00084ED0E7A03B0BDEC028BBDE8F08340F2F1
:1013D000011300918DF80610ADF80430B7E704F161
:1013E000300003F045FD3946204601F03DFF4846F8
:1013F00001F086FA404601F083FA04F1120000F091
:1014000077F9CAE73946204601F02EFFC5E700BF4D
:101410000508050905070506050A060610B584B086
:1014200003460124ADF8040003A8ADF80C30ADF874
:101430000E4001F065FA214603A801F04BFB20465F
:1014400003F04AFC002103A801F044FB204603F00E
:1014500043FC214603A801F03DFB04B010BD00BFD2
:1014600010B5C2F3002384B00C46017C8DF80D202A
:1014700043EA4402FA2402238DF80C2003AA0094C4
:1014800001F03EFD18B10124204604B010BD044611
:101490000A2003F021FC204604B010BD034670B5BD
:1014A00043F8042B044684B007C983E80700A379F6
:1014B00083B91A210B461E22FA2523742046ADF863
:1014C0000C20022303AA009501F01AFD28B1012087
:1014D00004B070BD1B210B46EDE70A2003F0FCFBB6
:1014E0004FF4B85200950223ADF80C20204603AA11
:1014F000217C01F005FD0028E9D10A2003F0ECFB76
:1015000041F2027200950223ADF80C20204603AA96
:10151000217C01F0F5FC0028D9D10A2003F0DCFB86
:10152000042200950223ADF80C20204603AA217C5A
:1015300001F0E6FC0028CAD10A2003F0CDFB062208
:1015400000950223ADF80C20204603AA217C01F06F
:10155000D7FC0028BBD10A2003F0BEFB41F20822D1
:1015600000950223ADF80C20204603AA217C01F04F
:10157000C7FC0028ABD10A20064603F0ADFB00955E
:10158000022303AA217C2046ADF80C6001F0B8FCD0
:1015900000289CD1304603F09FFB009522790C2354
:1015A0002046002A8DF80C3003AA4FF0020314BF26
:1015B000622142218DF80D10217C01F0A1FC002850
:1015C00085D1304603F088FB2279D4E902310B4300
:1015D000DBB20AB943F0400362790AB143F0200359
:1015E0000E22FA258DF80D302046009502238DF845
:1015F0000C2003AA217C01F083FC00287FF467AF54
:101600000A2003F069FB102200950223ADF80C209C
:10161000204603AA217C01F073FC00287FF457AF19
:101620000A2003F059FB122100950223ADF80C109B
:1016300003AA217C204601F063FC00287FF447AF19
:101640000A2003F049FB012209212046FFF708FF89
:10165000003818BF01203BE7F0B5102387B0234CBA
:10166000012200250126002702A920460195CDE987
:1016700002234FF48052CDE904670AF041F9642057
:1016800004F0CCFA02A94FF480522046CDE9046759
:1016900002261027CDE902670AF032F9032210234F
:1016A00002A92046CDE9022300230422CDE9042328
:1016B0004FF480520AF024F940F23223042202A9A6
:1016C000019310232046CDE90223019A01230592BC
:1016D0004FF4805204930AF013F940F606012046B5
:1016E0000AF02EF9284607B0F0BD00BFE839012402
:1016F0001C4B00221C494FF0400C30B5054689B008
:101700000220596007219A601A620124DA620A22D3
:101710004FF4006EDC6006922022CDE90001042027
:101720000821CDE9020103201021CDE904010820A0
:101730006946C3E904024FF4C072181DC3E906C22A
:101740004FF48052C3E909E20AF0B0F838B92846EC
:10175000FFF782FF003818BF012009B030BD2046D6
:1017600009B030BDE439012440410052614A0021F2
:10177000D0B513688EB00A91002B40F0B9805E4B53
:1017800001214FF683700C2411600221D3F8D4207C
:101790000026032742F48052C3F8D420D3F8D42083
:1017A00002F480520092009AD3F8E02042F0100236
:1017B000C3F8E020D3F8E02002F010020192019A71
:1017C000D3F8E02042F04002C3F8E020D3F8E02054
:1017D00002F040020292029AD3F8E02042F008029E
:1017E000C3F8E020D3F8E02002F008020392039A45
:1017F000D3F8E02042F48072C3F8E020D3F8E02070
:1018000002F480720492049AD3F8E02042F080023D
:10181000C3F8E020D3F8E02002F080020592059A98
:10182000D3F8E02042F02002C3F8E020D3F8E02013
:1018300002F020020692069AD3F8E02042F0040259
:10184000C3F8E020D3F8E0300C9403F004030793CE
:101850000323079A0B93CDE9080108A9274805F04F
:1018600083FA48F23712022308A925480C94CDE9DF
:101870000823CDE90A6705F077FA4CF203720223D8
:1018800008A920480C94CDE90823CDE90A6705F0A2
:101890006BFA40F2FF62022308A91B480C94CDE9C1
:1018A0000823CDE90A6705F05FFA4FF60C720223B0
:1018B00008A916480C94CDE90823CDE90A6705F07C
:1018C00053FA4FF63F02022308A911480C94CDE9C0
:1018D0000823CDE90A6705F047FA2022022308A968
:1018E0000A480C94CDE90A67CDE9082305F03CFAD3
:1018F0000EB0D0BDE0390124004402580010025857
:1019000000180258000C025800200258001C02580F
:10191000001402582DE9F04FDFF8108406460D46FA
:10192000144608F114002DED028B89B000AF02F0CF
:1019300013F9D8F8143073B3D8F81830D8F80490E5
:10194000002B43690BBF4FF0080A4FF0100A4FF00D
:10195000020B4FF0040BB9F1000F2AD0A200EA46A7
:10196000012B02F1070222F00702ADEB020D6846DF
:10197000ADEB020D694600F03F81022B00F0D680EE
:10198000002B6FD02246C847D5462437BD46BDEC54
:10199000028BBDE8F08FD8F81830002BF5D0D8F8BE
:1019A00004904FF0080A4FF0020B4369B9F1000FA1
:1019B000D4D1FB61D8F80030BB61002BE5D0D5480D
:1019C00002F03CF96B46BBF1020F786108EE103A69
:1019D000FB6900F083816A465146A2EBC40295463A
:1019E0006200EA46B2FBFBF2AAEBC40085460AEBB2
:1019F0008200EE46F861ADEB010DF8690EEB820C4A
:101A0000C7F810C0EC46ADEB010D00EB8201CCF83D
:101A10000400CCF8081001EB82013869E946CCF8E3
:101A20000C1000EB8201CCF800A001EB8202C9E9A6
:101A300000E0C9E90212012B00F06483022B00F0E0
:101A40006C82002B00F08081620849466046BB69C9
:101A5000984718EE103A24379D46BD46BDEC028BE0
:101A6000BDE8F08F002C8DD01A46D8ED0B6A9FEDA3
:101A7000B27A8446331D36F922E00CF1080C07EEE9
:101A800090EA33F922E00232F8EEE77A944267EE08
:101A9000877A67EEA67A4CED027A07EE90EAF8EEC6
:101AA000E77A67EE877A67EEA67A4CED017AE2D89C
:101AB000F9612246C847984ED8ED046A0020F969BA
:101AC0002B1D9FED9E7A9FED9E6ADFED9E5A22E0D0
:101AD000F4EEC67AF1EE10FAC0F2C88447F6FE7250
:101AE000D1ED017A45F8202066EEA77AF4EEC77AA8
:101AF000F1EE10FA40F2F080F4EEC67AF1EE10FA50
:101B0000C0F2D58447F6FE7243F820200230083137
:101B100084427FF639AFD1ED007A66EEA77AF4EE13
:101B2000C77AF1EE10FAD3D83246D9E7002C3FF449
:101B300029AFD8ED0B6A84469FED787A0022331DD9
:101B40008E4656F822100CF1080C07EE901A53F846
:101B500022100232F8EEE77A944267EE877A67EE57
:101B6000A67A4CED027A07EE901AF8EEE77A67EE65
:101B7000877A67EEA67A4CED017AE2D87146224662
:101B8000C7F81CE0C847664ED8ED046A0020F96922
:101B90002B1D9FED6A7A9FED6A6ADFF894C120E001
:101BA000F4EEC67AF1EE10FAC0F279843246D1ED45
:101BB000017A45F8202066EEA77AF4EEC77AF1EEB6
:101BC00010FA40F28780F4EEC67AF1EE10FAC0F215
:101BD0005E84324643F820200230083184427FF68A
:101BE000D3AED1ED007A66EEA77AF4EEC77AF1EEC5
:101BF00010FAD5D86246DAE7002C3FF4C3AED8ED30
:101C00000B6A86469FED477A4FF0000C331D56F85D
:101C10002C200EF1080E82F40002A2F5000207EE5D
:101C2000902A53F82C200CF1020CF8EEE77A82F49B
:101C300000026445A2F5000267EE877A67EEA67A95
:101C40004EED027A07EE902AF8EEE77A67EE877A91
:101C500067EEA67A4EED017AD9D8F9612246C847D7
:101C6000314ED8ED046A0020F9692B1D9FED337ABF
:101C70009FED336ADFF8BCC01FE0F4EEC67AF1EEE8
:101C800010FAC0F2FC833246D1ED017A45F82020EB
:101C900066EEA77AF4EEC77AF1EE10FA18D9F4EEF0
:101CA000C67AF1EE10FAC0F2DA83324643F8202009
:101CB0000230083184427FF667AED1ED007A66EEDD
:101CC000A77AF4EEC77AF1EE10FAD6D86246DBE7CF
:101CD0006246EBE762467DE7324615E7A100D6464D
:101CE0006208073121F00701ADEB010DEA46ADEBCB
:101CF000010D6946ADEB0E0D0AEB8200EC46ADEB33
:101D00000E0D01EB8202F861E946CCE900A0C9E9B9
:101D1000001290E6343A01240280FFFF00000030F8
:101D20000082FF7F0000003482FF7F001C3A012404
:101D3000007E00807E0080FF0000003804FF7FBF2F
:101D400004FF7F3F00FEFF46002C00F0C982BBF17C
:101D5000020FD8F8202000F0FA827969C7F80490C1
:101D600002EB810E5FED0C5A8A00DCF808100EF1D0
:101D700004007A611A46DCF80C303B61331DD7F859
:101D800010903D61FD69C7E902CB8C46834636F968
:101D90002210D8ED0B7A06EE101A33F9221006EE57
:101DA000901A3EF92210B8EEC66A07EE101AF8EE45
:101DB000E66A3BF92210B8EEC77A26EE256A66EE8F
:101DC000A56A27EE257A26EE276A66EEA76A27EE31
:101DD000277A07EE901A51080232F8EEE77A0AEBFA
:101DE0008100944280ED006A05EB810067EEA57AE0
:101DF000C0ED006A0CEB810009EB810180ED007AF7
:101E000098ED0B7A67EE877AC1ED007ABFD8D7F8E4
:101E100004903D69D7E902CB60466208BB69494638
:101E20009847D8F828307A69D8ED046A1A441FED2B
:101E30003D7A1FED3D6A2B1D904602F1040A5FEDCD
:101E40003F5A0022A84ED9E900EC51E0F4EEC67AE0
:101E5000F1EE10FAC0F2C78247F6FE7045F8220094
:101E60000CEB0100D0ED007A66EEA77AF4EEC77AAB
:101E7000F1EE10FA4BD9F4EEC67AF1EE10FAC0F298
:101E8000BA8247F6FE70BBF1020F43F822002BD056
:101E9000D9F808000844D0ED007A66EEA77AF4EE8F
:101EA000C77AF1EE10FA36D9F4EEC67AF1EE10FAEE
:101EB000C0F2CD8247F6FE7048F82200D9F80C0037
:101EC0000144D1ED007A66EEA77AF4EEC77AF1EE1E
:101ED00010FA1ED9F4EEC67AF1EE10FAC0F2AF8213
:101EE00047F6FE714AF82210023294427FF6B1ADF5
:101EF00051080EEB81008900D0ED007A66EEA77ADA
:101F0000F4EEC77AF1EE10FAA0D83046A6E73046D4
:101F1000B9E73146E6E73046CEE7002C00F0E08135
:101F2000BBF1020FD8F8203000F0E1817A69DCF8CB
:101F3000081003EB820EC7F804909300DFED6B5A94
:101F40000EF1040000227B61DCF80C303B61331D94
:101F5000D7F810903D61FD69C7E902CB8C468346F6
:101F600056F82210D8ED0B7A07EE101A53F822100B
:101F7000B8EEC76A07EE101A5EF82210F8EEC76ACC
:101F800007EE101A26EE256A5BF82210B8EEC77A23
:101F900066EEA56A26EE276A27EE257A66EEA76A20
:101FA00027EE277A07EE901A51080232F8EEE77A08
:101FB0000AEB8100944280ED006A05EB810067EE38
:101FC000A57AC0ED006A0CEB810009EB810180ED80
:101FD000007A98ED0B7A67EE877AC1ED007ABFD868
:101FE000D7F804903D69D7E902CB60466208BB6927
:101FF00049469847D8F828307A69D8ED046A1A44D7
:102000009FED3E7A9FED3E6A131D9246DFF8E4C0D5
:102010000022FB612B1D364ED9E9008E4EE0F4EE16
:10202000C67AF1EE10FAC0F2FC81304645F8220083
:102030000EEB0100D0ED007A66EEA77AF4EEC77AD7
:10204000F1EE10FA49D9F4EEC67AF1EE10FAC0F2C8
:10205000EF813046BBF1020F43F822002AD0D9F8B5
:1020600008000844D0ED007A66EEA77AF4EEC77A4D
:10207000F1EE10FA35D9F4EEC67AF1EE10FAC0F2AC
:10208000C98130464AF82200D9F80C000144D1ED4C
:10209000007A66EEA77AF4EEC77AF1EE10FA1ED94E
:1020A000F4EEC67AF1EE10FAC0F2AD813146F8696D
:1020B00040F82210023294427FF6CBAC510808EB74
:1020C00081008900D0ED007A66EEA77AF4EEC77A37
:1020D000F1EE10FAA3D86046A8E76046BAE7614679
:1020E000E5E76046CEE700BF0280FFFF000000305A
:1020F0000082FF7F007E00800000003404FF7FBF6D
:1021000004FF7F3F002C00F0EB807A690021D8F8B3
:102110002030C7F8109003EB820ED7F81C90930084
:10212000FD610EF104021FED0C6A7B61331D154643
:1021300056F821204808D8ED0B6ABBF1020F82F453
:102140000002A2F5000207EE902A53F8212082F443
:102150000002B8EEE77AA2F5000227EE067A07EE53
:10216000902A0AEB8002F8EEE77A27EE267A67EEED
:10217000867A82ED007A09EB80024FEA800067EEF2
:10218000A67AC2ED007A27D05EF8212082F4000200
:10219000A2F5000207EE902A55F8212082F40002F1
:1021A000B8EEE77AA2F5000227EE067A07EE902A4B
:1021B000DCF80820F8EEE77A024427EE267A67EE8C
:1021C000867A82ED007A98ED0B7ADCF80C2067EEC7
:1021D000877A0244C2ED007A02318C42A8D8D7F83F
:1021E000109060466208BB694946FD699847D8F877
:1021F00028307A69D8ED046A1A441FED407A1FED41
:10220000406A131D9246DFF8C4C20022FB612B1DF9
:10221000AB4ED9E9008E4EE0F4EEC67AF1EE10FA3C
:10222000C0F2C580304645F822000EEB0100D0ED2B
:10223000007A66EEA77AF4EEC77AF1EE10FA49D981
:10224000F4EEC67AF1EE10FAC0F2BF803046BBF170
:10225000020F43F822002AD0D9F808000844D0ED34
:10226000007A66EEA77AF4EEC77AF1EE10FA35D965
:10227000F4EEC67AF1EE10FAC0F2AE8030464AF8BB
:102280002200D9F80C000144D1ED007A66EEA77A5D
:10229000F4EEC77AF1EE10FA1ED9F4EEC67AF1EE3A
:1022A00010FAC0F28B803146F86940F822100232F1
:1022B00094427FF6CEAB510808EB81008900D0ED47
:1022C000007A66EEA77AF4EEC77AF1EE10FAA3D898
:1022D0006046A8E76046BAE76146E5E76046CEE7B4
:1022E000224649466046BB699847FFF7B2BBC7F82C
:1022F00010B0002298ED0B6A331DDFED726AD7F83B
:102300001CB0786956F8221007EE901A53F8221084
:10231000B8EEE77A07EE901A51080232F8EEE77A43
:1023200027EE267A0AEB810E94420BEB810167EED1
:10233000A67A27EE067A67EE867A8EED007AC1EDF0
:10234000007ADFD88300D7F810B07B614DE61A46DB
:10235000C7F810B098ED0B6A331DDFED5B6AD7F854
:102360001CB0786936F9221007EE101A33F92210E2
:1023700007EE901AB8EEC77A51080232F8EEE77A03
:1023800027EE267A0AEB810E94420BEB810167EE71
:10239000A67A27EE067A67EE867A8EED007AC1ED90
:1023A000007ADFD88300D7F810B07B6134E5F0EE17
:1023B000675AFEEEE45A15EE900A34E7F0EE675ADB
:1023C000FEEEE45A15EE901A6EE7F0EE675AFEEE56
:1023D000E45A15EE900A3AE7F0EE675AFEEEE45A38
:1023E00015EE900A4BE767EEA57AFDEEE77A17EE59
:1023F000900A00B232E567EEA57AFDEEE77A17EEB5
:10240000900A00B23FE5F0EE675AFEEEE05A15EE94
:10241000901A4CE6F0EE675AFEEEE05A15EE900A7E
:1024200030E6F0EE675AFEEEE05A15EE900AFDE552
:10243000F0EE675AFEEEE05A15EE900A0AE667EEF5
:10244000A57AFDEEE77A17EE901A09B24AE567EE33
:10245000A57AFDEEE77A17EE900A00B22CE5F0EED1
:10246000675AFEEEE45A15EE902A1FE467EEA57A4D
:10247000FDEEE77A17EE902A12B2FFF731BBF0EECD
:10248000675AFEEEE45A15EE902AFFF7FDBBF0EE18
:10249000675AFEEEE05A15EE902AFFF79BBBF0EE6E
:1024A000675AFEEEE05A15EE902AFFF780BB67EE02
:1024B000A57AFDEEE77A17EE902A12B2FFF724BB59
:1024C00082FF7F0000000030000000387E0080FFA7
:1024D00030B5154C154685B0046004F1080C01AB0D
:1024E00007C98CE80700D4ED047AF5EEC07A83E8DA
:1024F0000700F1EE10FA14DDF7EE006A86EEA77A17
:1025000084ED0B7A6DB1204640F8145F01F024FB96
:10251000064903690020064AE1616262E36005B092
:1025200030BD012005B030BD1C3A01240020003030
:102530000000003000680830704700BFB1F5807FB0
:1025400003680A4628BF4FF48072B1F5807F9A6015
:1025500094BF0020012070470068143001F05CBB7C
:1025600070B504688AB06369E160CBB104F1140509
:10257000284601F0F1FA8446EE46E668BCE80F0012
:10258000AEE80F00BCE80F00AEE80F009CE80300C7
:102590008EE8030069462846049601F0E5F9F8B98B
:1025A000A069D8B104F11805284601F0D5FA84468F
:1025B000EE46E468BCE80F00AEE80F00BCE80F0090
:1025C000AEE80F009CE803008EE803006946284649
:1025D000049401F0C9F9003818BF01200AB070BD99
:1025E00001200AB070BD00BF30B5046883B00D464D
:1025F000A3694BB1A3680020A26A216A9B000090E6
:1026000004F1180001F0AAFAA3680748626A9B0067
:10261000E169009004F1140001F0A0FA0020C4E97F
:10262000005003B030BD00BF15190008024B002256
:10263000C3E90522704700BF1C3A0124704700BF60
:10264000F8B5134F3C687F2C07D98023114A42F21A
:1026500024411C463B60A2F87E100F4D2B68012BD5
:102660000AD90C4E0D4D22463146284600F02CF971
:102670000028F8D13860F8BD22460649074800F026
:1026800023F90028F7D12B68386001332B60F8BD9F
:10269000503A0124543A01244C3A0124D43A0124FA
:1026A00030B4154C2168F1B14B1E144DE81810F8E8
:1026B00001298C4619460A2A01D00D2A02D14BB1B4
:1026C000013BF4E70CF102037F2B10D98023236038
:1026D00030BC70470122022323600D200A23685476
:1026E000AB5430BC704701220223044DF4E70CF1D7
:1026F00001026146F0E700BF503A0124543A012438
:1027000010B5094C02460B46084821680844C1F13F
:1027100080010FF0C3FB236818442060FFF7C0FF5F
:10272000FFF78EFF10BD00BF503A0124543A012438
:102730000FB400B583B004A951F8040B0191FFF761
:10274000DFFF03B05DF804EB04B0704710B504463A
:1027500000210A4800F032F8002C094B14BF022275
:10276000002208481A60FFF7E3FF0748FFF7E0FF81
:102770000A20BDE8104002F0AFBA00BFD43A0124ED
:102780004C3A01240831010818310108064A07496A
:10279000074808B50EF0F6FB034A04490548BDE8B2
:1027A00008400EF0EFBB00BF000000243D260008EB
:1027B000D43A0124D83A0124704700BF012910B54A
:1027C00006D0022915D051B1BDE8104006F0AEB9CF
:1027D0000A46344834490BF0D9FFE8B1FEE7334BE1
:1027E0000A46334C334934481C600BF0CFFF68B1C4
:1027F000FEE701222C492B480BF0C8FF00B1FEE791
:102800002E4928480BF0E4FFC0B1FEE72B492A48C7
:102810000BF0DEFF60B1FEE7284922480BF0D8FF3D
:1028200000B1FEE726491F480BF060FF08B3FEE742
:10283000244921480BF05AFFA8B1FEE72049194866
:102840000BF054FF00B1FEE716480BF0D7FF02462D
:1028500040B9164B164C174917481C600BF096FFF1
:1028600068B1FEE7FEE714480BF0C8FF0028ABD0C4
:10287000FEE70C480BF0C2FF0028A5D0FEE70F4989
:102880000D480BF0A5FF00B1FEE70E490A480BF01A
:102890002DFF00B1FEE708480BF0B0FF002893D0F1
:1028A000FEE700BF783D0124940100241440012478
:1028B000B927000878010024DC3A0124FC01002437
:1028C0005801002448010024084691B208B502F0DE
:1028D000A1FC003818BF012008BD00BF014805F069
:1028E00003BC00BF087D0124014805F0FDBB00BF0B
:1028F000087D0124014805F0F7BB00BF087D0124D5
:102900008378022B30B504468FB037D0032B33D0F9
:10291000012B31D000230A93E378012B2AD0022B1C
:1029200028D000230B93002320460C9303F054F887
:102930000546204603F058F823780990082B13D851
:10294000DFE803F01F3245586B7E91A40500594B18
:10295000D3F8E02042F48072C3F8E020D3F8E030EE
:1029600003F480730893089B09A9284604F0FCF936
:102970000FB030BD0B93D6E70A93CDE711230A932E
:10298000CAE74C4B09A92846D3F8E02042F00102DF
:10299000C3F8E020D3F8E03003F001030093009B7C
:1029A00004F0E2F90FB030BD424B09A92846D3F834
:1029B000E02042F00202C3F8E020D3F8E03003F058
:1029C00002030193019B04F0CFF90FB030BD394BE6
:1029D00009A92846D3F8E02042F00402C3F8E02019
:1029E000D3F8E03003F004030293029B04F0BCF937
:1029F0000FB030BD2F4B09A92846D3F8E02042F094
:102A00000802C3F8E020D3F8E03003F00803039392
:102A1000039B04F0A9F90FB030BD264B09A9284645
:102A2000D3F8E02042F01002C3F8E020D3F8E03001
:102A300003F010030493049B04F096F90FB030BD2B
:102A40001C4B09A92846D3F8E02042F02002C3F825
:102A5000E020D3F8E03003F020030593059B04F059
:102A600083F90FB030BD134B09A92846D3F8E020F5
:102A700042F04002C3F8E020D3F8E03003F0400316
:102A80000693069B04F070F90FB030BD094B09A9FD
:102A90002846D3F8E02042F08002C3F8E020D3F8C3
:102AA000E03003F080030793079B04F05DF90FB05B
:102AB00030BD00BF0044025838B5054602F08CFF17
:102AC0000446284602F090FF01462046BDE8384003
:102AD00004F052BB70B506460D4602F07DFF044679
:102AE000304602F081FF2A1E0146204618BF01220F
:102AF000BDE8704004F046BB0023122270B586B0DA
:102B0000CDE9022304930368032B01D80423059322
:102B1000061D841D304602F05FFF0546304602F078
:102B200063FF034601A92846019304F01DF92046DE
:102B300002F052FF034620461C4602F055FF01A951
:102B400003462046019304F00FF906B070BD00BFA4
:102B5000634A0368934210B58CB028D0614A93420F
:102B600058D0614A934200F09480604A934201D069
:102B70000CB010BD5E4C5F48D4F8E03043F0020367
:102B8000C4F8E030D4F8E03003F002030A930A9B63
:102B9000FFF7B2FFD4F8F43043F08003C4F8F43008
:102BA000D4F8F43003F080030B930B9BE0E7504C18
:102BB0005148D4F8E03043F00203C4F8E030D4F8D0
:102BC000E03003F002030193019BFFF795FFD4F877
:102BD000E83000221F2043F400131146C4F8E83007
:102BE000D4F8E83003F400130293029BD4F8D830F1
:102BF00043F00103C4F8D830D4F8D83003F001030F
:102C00000393039B03F034F81F200CB0BDE8104081
:102C100003F06CB8364C3948D4F8E03043F0800308
:102C2000C4F8E030D4F8E03003F080030493049B50
:102C3000D4F8E03043F00203C4F8E030D4F8E030D8
:102C400003F002030593059BFFF756FFD4F8E83025
:102C50000022212043F480031146C4F8E830D4F860
:102C6000E83003F480030693069BD4F8D83043F091
:102C70000103C4F8D830D4F8D83003F00103079327
:102C8000079B02F0F5FF21200CB0BDE8104003F0D7
:102C90002DB81B48FFF730FF154B00224820D3F812
:102CA000E840114644F40004C3F8E840D3F8E84093
:102CB00004F400040894089CD3F8D84044F00104BC
:102CC000C3F8D840D3F8D83003F001030993099B27
:102CD00002F0CEFF48200CB0BDE8104003F006B86B
:102CE0000054004000580040005C0040001C0058A8
:102CF00000440258A44201241C400124F440012451
:102D0000CC4101242DE9F0431A4B87B000254FF048
:102D100010099E46EC46184BFF22E04667461A70A3
:102D20000EF118060EF13004CDE90055CDE902553B
:102D3000ADF80090BCE80F00CDE90455AEE80F00F7
:102D40009CE803000095ADF800908EE80300B8E819
:102D50000F000FC69CE803000095ADF8009086E8D0
:102D600003000FCF0FC49CE8030084E8030007B002
:102D7000BDE8F083040000241940012410B5EFF3EE
:102D8000108472B6084B1A78120602D504B962B6DE
:102D900010BD1B78D82205485BB202FB030014303B
:102DA00003F090FCF2E700BF194001241C4001240D
:102DB000014805F07FB800BFA8400124014805F094
:102DC00079B800BF80410124014805F073B800BF05
:102DD000584201242DE9F0430F68D8243F4D85B0B7
:102DE00007FB04F4032F05EB0403036040DCCB680E
:102DF0000E46012B3CD84DD04FF0D808B646DFF830
:102E0000FC9008FB0758BEE80F00C446ACE80F0072
:102E1000DEF800300DF1100ECCF80030D8F808C004
:102E200099E80F000EE90F000EEB8703BCF1010FCC
:102E300053F8103CC8F88C3031D0BCF1020F42D0AE
:102E4000BCF1000F35D0317C8C34D8230022012016
:102E50002C4403FB07534900C3E92602C3F894102E
:102E60002046C3E92822C3E92A2204F015FE18B13E
:102E7000012005B0BDE8F0830146204605F026F8A4
:102E80000028F5D10146204605F04AF8003818BF61
:102E90000120EEE70B7C103B672BADD9E8E702F091
:102EA0007DF80F4B98420CBF0E4B0F4BC8F890307B
:102EB000C9E702F073F80A4B98420CBF0B4B0C4B5E
:102EC000C8F89030BFE702F069F8054B98420CBF94
:102ED000084B094BC8F89030B5E700BF1C400124EF
:102EE000000E27072D0FB0303211D0205F439060C5
:102EF0008A62E030200BA0101A0980100830010807
:102F00002DE9F041D0F8008082B00D4617461E46EC
:102F100008F18C04204604F0D5FF2028FAD1D8F817
:102F20000C3073B96D002046089C33463A46A9B26E
:102F3000009404F007FE003818BF012002B0BDE87D
:102F4000F081089B32463946204604F0CFFEF2E776
:102F5000044B10221A7483F8E82083F8C02183F808
:102F6000982270471C40012430B5002395B04FF4DF
:102F70008071062204460B9306921393CDE90C133D
:102F8000CDE90E33CDE9113302F00AF807282BD032
:102F900004F1100541F2883206A9284605F012FF17
:102FA00028B10123184684F85C3015B030BD0222E8
:102FB000022306A92846CDE9002310220123CDE9EA
:102FC000022300224FF48003CDE9042305224FF0B1
:102FD000807306926A460F9341F2883306F05EF8DA
:102FE0000028DED115B030BD0323012084F85C3009
:102FF00015B030BD0000000070B50023A4B04FF044
:1030000080724FF480750446ADF806300D93CDE91B
:1030100010320122CDE90E53CDE91223CDE914334C
:10302000002943D0F02300F1100508AEADF80630BA
:10303000C02341F2883231462846089305F0C2FE8B
:1030400028B10123184684F85C3024B070BD41F2E9
:1030500088320DF10601284605F01EFF03460028C0
:10306000EFD105224FF480711E93284616924FF03F
:1030700080721B9321931F9202AA9FED1F7BCDE9C3
:103080001C13CDE922338DED027B9FED1D7B41F2B8
:10309000883316A98DED047B9FED1B7B8DED067BA0
:1030A00005F0FCFF0028CCD124B070BD00F1100564
:1030B00008AE612341F2883231462846089305F074
:1030C00081FE0028BDD141F288320DF1060128466B
:1030D00005F060FF0028B4D1BDF80630204623F08B
:1030E000780343F04003ADF80630FFF73DFF0028BA
:1030F0009ED0A6E7AFF300800000000001000000B2
:10310000100000000100000000000000000040006E
:103110002DE9F04F00234FF4807501264FF08078A1
:1031200004462DED028BABB08DF80730139321933D
:10313000299314950E96CDF85C80CDE91533CDE931
:103140001863CDE91A33CDE92253CDE92433CDE913
:10315000273306231C9301F023FF072808D004F12E
:10316000100741F288321CA9384605F02BFE40B109
:103170000123184684F85C302BB0BDEC028BBDE80F
:10318000F08F4FF0020A4FF0020B4FF0050941F2A9
:10319000883308AA1CA93846CDF89480CDF87090E1
:1031A0009FED2D8BCDE908AB4FF0000A4FF4800B5B
:1031B0008DED0A8BCDE90CAB05F070FF0028D7D15F
:1031C00041F2883238460EA905F0FCFD0028CFD127
:1031D000402341F288320DF1070138468DF807305F
:1031E00005F05AFE0028C3D141F288330EA902AA85
:1031F0003846CDF83890CDF85C809FED197B8DED89
:10320000048BCDE906AB8DED027B05F047FF03464D
:103210000028ADD1CDF870904FF00109CDF8948021
:103220004FF00008219308AA29931CA9384622953B
:10323000CDE92333CDE9273341F288338DED0A8B75
:10324000CDE90CABCDE9088905F028FF002893D023
:10325000304684F85C608FE7100000000100000039
:1032600040000000400000002DE9F043624CA3B094
:103270000D46046001F094FE072800F0A98028683C
:1032800023466968AA6807C31E46AB8926F8043B33
:103290003046257B677B05F077FDE0B9574B012D64
:1032A0004FF00108E061236114BF4FF480134FF425
:1032B0000003C4E9058893FAA3F3B3FA83F34FF448
:1032C0008079013BC4F82490C4E90B0030462362A6
:1032D00005F0EEFC38B10122134684F85C20184654
:1032E00023B0BDE8F08366230B90139041F288323F
:1032F00006A90693CDE90C90CDE90E00CDE91100A9
:10330000304605F05FFD0028E5D1992341F288326F
:1033100006A93046069305F055FD0028DBD10523AC
:103320001C9019906A4614934FF08073219014A951
:103330001D9341F288339FED2A7BCDE91A90CDE9A8
:103340001F008DED007B9FED287B30468DED027BCD
:103350009FED277B8DED047B05F0A0FE0028BAD100
:1033600029462046FFF748FE0028B4D12046FFF743
:10337000CFFE03460028AED1002FB0D118933046BF
:103380000027002606AA14A9CDF86890CDE91F33BE
:10339000EB2314934FF440631B934FF400531793A4
:1033A0004FF440431C93A0231693062319934FF028
:1033B000805321934FF04073CDE906671D9305F0CC
:1033C000E5FE034600288AD0434684F85C8086E701
:1033D00001230322184684F85C2023B0BDE8F08363
:1033E00000000000010000001000000001000000CB
:1033F00000000000000040007C4301240050005207
:103400002DE9F04F8FB0414B0024026800AF9A4283
:103410007C63C7E90944C7E90B4403D03C37BD4688
:10342000BDE8F08F3A4B40F609213A48EB46D3F815
:10343000D42007F11C0607F1220A4FF0020942F4DA
:1034400080424FF00308C3F8D420D3F8D42002F40C
:103450008042BA60BA68D3F8E02042F04002C3F874
:10346000E020D3F8E02002F04002FA60FA68D3F8D6
:10347000E02042F02002C3F8E020D3F8E02002F080
:1034800020023A613A69D3F8E02042F01002C3F812
:10349000E020D3F8E02002F010027A617A69D3F8D4
:1034A000E02042F00202C3F8E020D3F8E030F861F7
:1034B00003F002033984BB61174B7B60BB697B68F7
:1034C00053F8040F7B6002F087FA7B6805461868A2
:1034D00002F08AFA16F8013B786207F124012846C7
:1034E000C7F830807B63C7E90A9403F03DFC56457A
:1034F000E5D100225C20114602F0BAFB5C2002F00C
:10350000F5FB3C37DD46BD46BDE8F08F005000526C
:10351000004402580A0A0909D8430124114B0268E1
:103520009A4200D07047104A70B5D2F8D4300F4C90
:1035300023F4804304F11806C2F8D43054F8040F81
:1035400002F04AFA0546206802F04EFA0146284683
:1035500003F04AFDB442F1D15C20BDE8704002F0B6
:10356000D3BB00BF0050005200440258D84301248E
:10357000014805F097BE00BF8C430124084B1A1D7B
:10358000981D03F1080110B49C1C9A6603F10A020D
:10359000C3E91834C3E91B015DF8044B5A6770474F
:1035A0007C43012438B5036871B9026A00F128052B
:1035B00000F5AC74012A0CBF002140218BBB1D4BD0
:1035C0005722C0F858310DE0426A00F1C00500F5FD
:1035D000E874012A0CBF00214021EBB1164B5A229E
:1035E000C0F8D03100232046C4E901214FF48052B5
:1035F0004FF48061636262614FF48042C4E9033139
:103600004FF48073C4E906234FF40033236202F0C1
:10361000E1FC58B1FFBEFEE7084B5822C0F8D0319C
:10362000E0E7074B5922C0F85831DBE7C5E92044F1
:10363000A56338BD1000024070000240280002401F
:10364000580002402DE9F043821D05468BB0031D52
:1036500005F10A010830CDE9052305F10C02AB693B
:10366000CDE907010992002B3DD0EB69B3FA83F84D
:103670004FEA58180123022205AE0AAF4FF006099F
:103680000393CDE9012356F8044B2B79227893421A
:1036900016D02B68F3B1012B02D1F2B10A230493A7
:1036A000204602F0A1F903462046009302F094F967
:1036B000694603F059FBBE42E5D10BB0BDE8F0838B
:1036C000697963789942E4D1B8F1000FF3D02B689F
:1036D000002BE0D1CDF81090E2E76378022B14BF05
:1036E0000A230823DBE74FF00108C3E7534A0368C6
:1036F000934230B505468BB055D02032934252D01C
:103700004F4A934204D02032934201D00BB030BDD7
:103710004C4C4D48D4F8E03043F00103C4F8E0309D
:10372000D4F8E03003F001030593059BD4F8E030B2
:1037300043F00803C4F8E030D4F8E03003F00803A5
:103740000693069BD4F8E03043F04003C4F8E03021
:10375000D4F8E03003F040030793079BD4F8F0302F
:1037600043F40003C4F8F030D4F8F03003F400035D
:103770000893089BFFF766FFD4F8D830296843F018
:1037800001032F4A3048C4F8D830891AD4F8D83009
:1037900018BF012103F001030993099B0BB0BDE899
:1037A0003040FFF7FFBE274C2848D4F8E03043F004
:1037B0000103C4F8E030D4F8E03003F001030093D3
:1037C000009BD4F8E03043F01003C4F8E030D4F8A4
:1037D000E03003F010030193019BD4F8E03043F094
:1037E0004003C4F8E030D4F8E03003F04003029323
:1037F000029BD4F8F03043F48003C4F8F030D4F8DE
:10380000F03003F480030393039BFFF71BFFD4F80E
:10381000D830296843F00103084A0C48C4F8D8306E
:10382000891AD4F8D83018BF012103F0010304939A
:10383000049B0BB0BDE83040FFF7B4BE0458014014
:10384000045C01400044025850460124F443012422
:10385000014802F037BF00BF4C450124014802F087
:1038600031BF00BFC4450124014802F02BBF00BF97
:10387000A8470124014802F025BF00BF20480124C9
:103880001A4A0368934210B40BD02032934208D0F6
:10389000174A934216D02032934213D05DF8044B5E
:1038A0007047144B0022D3F85442C3F85822002C1E
:1038B000F4D0D3F84802D3E9931223465DF8044BC1
:1038C000520818470B4B0022D3F8B044C3F8B42475
:1038D000002CE3D0D3F8AC24D3F8A814D3F8A40474
:1038E000520823465DF8044B184700BF04580140B6
:1038F000045C0140F4430124184A0368934210B465
:103900000BD02032934208D0154A934217D0203270
:10391000934214D05DF8044B7047124BD3E99424C2
:103920005208C3F85822002CF4D0D3E99201234660
:1039300001EB820100EB82005DF8044B1847094B54
:10394000D3F8AC24D3F8B0445208C3F8B424002C04
:10395000E0D0D3F8A814D3F8A404E8E70458014051
:10396000045C0140F44301242DE9F04F0C684FF44E
:103970001776754F87B004FB06F6012C07EB060A95
:10398000C0F800A000F3A0800D468E464FF000085E
:10399000D44669A3D3E9002369A1D1E90001CDE9A7
:1039A000022306ABCAF8508203EB8403CDE904017D
:1039B00053F810BC53F8083CCAE992880193BEE85A
:1039C0000F00ACE80F00BEE80F00ACE80F00019B51
:1039D0009EE80300CAF828B0CAF8C0308CE803009B
:1039E0002B69042B0CD8DFE803F0737D879103006B
:1039F0004FF41773554A03FB04739A64C3F8E0202D
:103A0000AA692B6A002A43D0002B4FF4177308BF12
:103A1000022203FB047318BF0322DA6201221A6335
:103A2000EA696B6A002A40D1191E4FF4177318BF58
:103A3000012103FB0473C3E931126B69022B05D822
:103A4000434A12F80380434A52F823904FF4177305
:103A500006F128004246494603FB0474002338441B
:103A600063646363E365C4F8DC30C4F8CC30C4F845
:103A7000F430C4E90F33C4E91533C4E93533C4E97C
:103A80003B33022307F0B0FC002849D0FFBEFEE71D
:103A9000191E4FF4177318BF012103FB0473C3E908
:103AA0000B12EA696B6A002ABED0002B4FF4177321
:103AB00008BF022203FB047318BF0322C3F8C4200B
:103AC0000122C3F8C820B8E7012007B0BDE8F08F95
:103AD0004FF417734FF4FA5203FB04739A64C3F85C
:103AE000E0208DE74FF417734FF47A5203FB047311
:103AF0009A64C3F8E02083E74FF417734FF4FA4257
:103B000003FB04739A64C3F8E02079E74FF417735A
:103B10004BF6803203FB04739A64C3F8E0206FE72E
:103B200006F1C000022342464946384407F05CFCD7
:103B30000028CAD0FFBEFEE704580140045C0140E3
:103B400024580140245C0140F44301240077010023
:103B5000283101082C3101080068704770B50468ED
:103B600082B015460E46C4F85032C4E99212069A45
:103B7000C4F85422A269012A26D0626A012A9AB2A4
:103B800011D0294604F1C000019207F0E9FC236A34
:103B9000019A012B10D0294604F1280007F0E0FC1F
:103BA000002002B070BD04F1C000019207F06AFD70
:103BB000236A019A012BEED1314604F1280007F067
:103BC00061FD002002B070BD226A012A9AB211D0B4
:103BD000294604F12800019207F0C2FC636A019AA9
:103BE000012B10D0294604F1C00007F0B9FC0020D9
:103BF00002B070BD04F12800019207F043FD636A32
:103C0000019A012BEED1314604F1C00007F03AFDD4
:103C1000002002B070BD00BF03681B69042B05D8EB
:103C2000044A02EB830393ED000A70479FED020AFA
:103C3000704700BF3831010800803B470368D3F864
:103C400058027047F0B5002387B00222044604935F
:103C5000CDE9022390F82022D0F824320B2A4FEA33
:103C6000430525D194F822220B2A02D1002007B067
:103C7000F0BD49496B1C494851F82330457801781B
:103C8000187894F8236288426AD0824278D0D87833
:103C900003F1030C81426FD0824279D0987903F10D
:103CA000060C884270D0824233D0012007B0F0BDAC
:103CB000394B3A4853F8253001784678187894F80B
:103CC00021C281423ED0824242D0D87803F1030E15
:103CD000814241D082424BD0987903F1060E88424E
:103CE00042D08242E1D1DB796345DED1734604F5EF
:103CF00008769B783046059301F06EFE0346304609
:103D00001E4601F071FE01A90190304603F02CF827
:103D1000A8E7DB79B342C8D1634604F222249B783A
:103D20002046059301F058FE034620461C4601F04C
:103D30005BFE034601A92046019303F015F800201D
:103D400007B0F0BD93F801E0B645BED08242BCD1C9
:103D500058786045B9D1CAE71F79B742BAD1BBE7F5
:103D60005F78AF4291D192E7D979B142B9D19CE75E
:103D700018796045B0D1B9E71F79AF428CD18DE792
:103D80005878B04283D1C8E7D979A9428BD18CE762
:103D90001879B04282D1BFE7680000246400002493
:103DA000826F12682DE9F0415268C0B0D0E9423408
:103DB000591E9A1A1C1B0A401444B4FBF3F103FB6E
:103DC0001144A34248D3D0F810610546D6F800311B
:103DD000D6F80411013B5B1AD6F80411DBB2A342FA
:103DE00094BFC9180919C6F80411D6F80431B3F5FF
:103DF000807F05D9D6F80431A3F58073C6F8043165
:103E0000C5F80C21D6F80021A718B7F5807F24D972
:103E1000C2F58078B118D2F5807223D1444502D022
:103E2000B4EB080222D1FFB205F58C78C6F8007118
:103E3000D5F81C022618B6F5807F8CBFC0F58077B8
:103E40002746CFB9BC4201D0E21B1BD1F6B2C5F860
:103E50001C6240B0BDE8F081FEE7B1182246002C9C
:103E6000E1D0A04668460DF085FED7E70DEB0800CF
:103E700031460DF07FFED6E740443A4669460DF0E4
:103E800079FEDFE70DEB0701F6B240460DF072FE5A
:103E9000C5F81C6240B0BDE8F08100BF204A03684D
:103EA000934225D0A2F54C42934228D002F580627D
:103EB000934226D002F58062934224D002F58062BC
:103EC000934222D002F54442934220D0A2F51C42F4
:103ED00093421ED002F5806293421CD0114A934255
:103EE0001BD00020DB69DB0600D47047FFF758BF0A
:103EF00000224FF40F710C4801FB0200F2E701228F
:103F0000F7E70222F5E70322F3E70422F1E70522AF
:103F1000EFE70622EDE70722EBE70822E9E700BF1B
:103F200000100140000C0058AC480124214A0368ED
:103F3000D0F88810934228D0A2F54C42934226D064
:103F400002F58062934224D002F58062934222D02F
:103F500002F58062934220D002F5444293421ED083
:103F6000A2F51C4293421CD002F5806293421AD003
:103F7000114A934219D10822104B4FF40F700021BF
:103F800000FB023383F8141170470022F4E701228A
:103F9000F2E70222F0E70322EEE70422ECE7052233
:103FA000EAE70622E8E70722E6E7002383F8143170
:103FB000FFDE00BF00100140000C0058AC48012497
:103FC0009C4A036893422DE9F04104468EB000F00C
:103FD000F380A2F54C42934200F0F08002F580623B
:103FE000934200F0EF8002F58062934200F0E88097
:103FF00002F58062934200F0E78002F5444293426A
:1040000000F0E480A2F51C42934200F00C8102F51E
:104010008062934200F00581874A934240F0058117
:1040200008264FF40F78854F08FB06F807EB0805C4
:1040300095F8220201F0E0FC95F8200201F0DCFC8A
:10404000D5F82432082B13D8DFE803F0293745537D
:10405000616F7D8B05007A4BD3F8F42042F00802A3
:10406000C3F8F420D3F8F43003F008030893089B56
:104070002846FFF7E7FD01280FD04FF40F756D4A72
:1040800006FB05F57B597E19934278D01A6842F0F9
:1040900010021A600EB0BDE8F081FFBEFEE7684B6B
:1040A000D3F8F02042F01002C3F8F020D3F8F0303B
:1040B00003F010030093009BDAE7614BD3F8E8208C
:1040C00042F40032C3F8E820D3F8E83003F40033B8
:1040D0000193019BCCE75A4BD3F8E82042F48022AD
:1040E000C3F8E820D3F8E83003F480230293029B5E
:1040F000BEE7534BD3F8E82042F40022C3F8E8208F
:10410000D3F8E83003F400230393039BB0E74C4B50
:10411000D3F8E82042F48012C3F8E820D3F8E8305E
:1041200003F480130493049BA2E7454BD3F8F020DB
:1041300042F02002C3F8F020D3F8F03003F020035F
:104140000593059B94E73E4BD3F8E82042F080426C
:10415000C3F8E820D3F8E83003F080430693069BC9
:1041600086E7374BD3F8E82042F00042C3F8E82056
:10417000D3F8E83003F000430793079B78E7002368
:10418000304A08F18C08C6E92533C6E92833C6E968
:104190002B332923B844C6E923234FF480634046D8
:1041A000C6F89C304FF48073C6F8A83001F012FFB7
:1041B000844668B1FFBEFEE7002632E7012630E7FD
:1041C00003262EE702262CE704262AE7052628E701
:1041D000C4F878800EA9D6F88C20D6F82432DFF8FF
:1041E00068E001EB43081368C6F8C44009AC23F04B
:1041F00008031360BEE80F000FC4DEF8003062460B
:104200006146238038F9140C01F032FDD6F82432CF
:104210000EAA02EB430333F9140C01F067FD7B593E
:1042200034E70726FDE60626FBE6002393F8223254
:10423000FFDE00BF00100140000C0058AC48012414
:1042400000440258880002401830010810B5264C7E
:10425000204607F045FC2368DA69D10600D410BD7A
:10426000224A93422FD0A2F54C4293422DD002F520
:10427000806293422BD002F58062934229D002F5EE
:104280008062934227D002F54442934225D0A2F5A2
:104290001C42934223D002F58062934221D0144AFB
:1042A00093420AD00020DA69D20602D410221A62A0
:1042B00010BDFFF775FD2368F8E708204FF40F7273
:1042C00002FB0040EFE70020F8E70120F6E70220BC
:1042D000F4E70320F2E70420F0E70520EEE70620EC
:1042E000ECE70720EAE700BFAC48012400100140DA
:1042F000000C005810B5274C04F50F7007F0F0FBC8
:10430000D4F83C32DA69D10600D410BD224A934277
:1043100030D0A2F54C4293422ED002F580629342F7
:104320002CD002F5806293422AD002F5806293423B
:1043300028D002F54442934226D0A2F51C42934273
:1043400024D002F58062934222D0144A93420BD0CB
:104350000020DA69D20602D410221A6210BDFFF7DB
:104360001FFDD4F83C32F7E708204FF40F7202FB30
:104370000040EEE70020F8E70120F6E70220F4E72E
:104380000320F2E70420F0E70520EEE70620ECE743
:104390000720EAE7AC48012400100140000C005857
:1043A00010B5274C04F58F6007F09AFBD4F87834E9
:1043B000DA69D10600D410BD224A934230D0A2F56A
:1043C0004C4293422ED002F5806293422CD002F5EB
:1043D000806293422AD002F58062934228D002F58F
:1043E0004442934226D0A2F51C42934224D002F5C7
:1043F0008062934222D0144A93420BD00020DA69A3
:10440000D20602D410221A6210BDFFF7C9FCD4F8FC
:104410007834F7E708204FF40F7202FB0040EEE714
:104420000020F8E70120F6E70220F4E70320F2E796
:104430000420F0E70520EEE70620ECE70720EAE796
:10444000AC48012400100140000C005810B5274C66
:1044500004F2B46007F044FBD4F8B436DA69D1064C
:1044600000D410BD224A934230D0A2F54C42934270
:104470002ED002F5806293422CD002F580629342E6
:104480002AD002F58062934228D002F5444293423A
:1044900026D0A2F51C42934224D002F580629342BA
:1044A00022D0144A93420BD00020DA69D20602D4FB
:1044B00010221A6210BDFFF773FCD4F8B436F7E788
:1044C00008204FF40F7202FB0040EEE70020F8E7EF
:1044D0000120F6E70220F4E70320F2E70420F0E7EA
:1044E0000520EEE70620ECE70720EAE7AC480124C8
:1044F00000100140000C005810B5274C04F50F6067
:1045000007F0EEFAD4F8F038DA69D10600D410BD1D
:10451000224A934230D0A2F54C4293422ED002F56B
:10452000806293422CD002F5806293422AD002F539
:104530008062934228D002F54442934226D0A2F5ED
:104540001C42934224D002F58062934222D0144A46
:1045500093420BD00020DA69D20602D410221A62EC
:1045600010BDFFF71DFCD4F8F038F7E708204FF432
:104570000F7202FB0040EEE70020F8E70120F6E7AB
:104580000220F4E70320F2E70420F0E70520EEE73D
:104590000620ECE70720EAE7AC48012400100140C0
:1045A000000C005810B5274C04F62C3007F098FA90
:1045B000D4F82C3BDA69D10600D410BD224A9342CC
:1045C00030D0A2F54C4293422ED002F58062934245
:1045D0002CD002F5806293422AD002F58062934289
:1045E00028D002F54442934226D0A2F51C429342C1
:1045F00024D002F58062934222D0144A93420BD019
:104600000020DA69D20602D410221A6210BDFFF728
:10461000C7FBD4F82C3BF7E708204FF40F7202FBDE
:104620000040EEE70020F8E70120F6E70220F4E77B
:104630000320F2E70420F0E70520EEE70620ECE790
:104640000720EAE7AC48012400100140000C0058A4
:1046500010B5274C04F6685007F042FAD4F8683DCC
:10466000DA69D10600D410BD224A934230D0A2F5B7
:104670004C4293422ED002F5806293422CD002F538
:10468000806293422AD002F58062934228D002F5DC
:104690004442934226D0A2F51C42934224D002F514
:1046A0008062934222D0144A93420BD00020DA69F0
:1046B000D20602D410221A6210BDFFF771FBD4F8A3
:1046C000683DF7E708204FF40F7202FB0040EEE769
:1046D0000020F8E70120F6E70220F4E70320F2E7E4
:1046E0000420F0E70520EEE70620ECE70720EAE7E4
:1046F000AC48012400100140000C005810B5274CB4
:1047000004F6A47007F0ECF9D4F8A43FDA69D106F6
:1047100000D410BD224A934230D0A2F54C429342BD
:104720002ED002F5806293422CD002F58062934233
:104730002AD002F58062934228D002F54442934287
:1047400026D0A2F51C42934224D002F58062934207
:1047500022D0144A93420BD00020DA69D20602D448
:1047600010221A6210BDFFF71BFBD4F8A43FF7E735
:1047700008204FF40F7202FB0040EEE70020F8E73C
:104780000120F6E70220F4E70320F2E70420F0E737
:104790000520EEE70620ECE70720EAE7AC48012415
:1047A00000100140000C005810B5284C04F5F070C2
:1047B00007F096F9D4F8E031DA69D10600D410BDDB
:1047C000234A934231D0A2F54C4293422FD002F5B6
:1047D000806293422DD002F5806293422BD002F585
:1047E0008062934229D002F54442934227D0A2F539
:1047F0001C42934225D002F58062934223D0154A91
:1048000093420BD00020DA69D20602D410221A6239
:1048100010BDFFF7C5FAD4F8E031F7E708224FF4EE
:104820000F710D4801FB0200EDE70022F7E70122BE
:10483000F5E70222F3E70322F1E70422EFE705227E
:10484000EDE70622EBE70722E9E700BFAC580124B9
:1048500000100140000C0058AC480124014801F050
:1048600031BF00BF384901242DE9F0414FF40F73E7
:10487000D1F80480374E8E4603FB08F70C46B8F19A
:10488000080F07EB0605056005F5087CBEE80F007C
:10489000ACE80F009EE807008CE8070003D8D5F8C5
:1048A0002C32022B02D90120BDE8F081D5F8282254
:1048B000032AF8D8D5F830120229F4D8D5F834C232
:1048C000BCF1020FEFD801312348890050F82800CD
:1048D000B851A069696121496860284651F82330C0
:1048E0002B611F4B53F82230EB601E4B53F82C30DA
:1048F000AB600023C5E90633C5E90833AB6208F0B5
:10490000D7FC0028CFD10146284608F029FD002811
:10491000C9D10146284608F075FD0028C3D12846B4
:1049200008F000FD02460028BDD10F494FF4807009
:10493000F319C1F80421C5F808011046C1F8002197
:10494000C5F81011A3F81421C5F81C22C5F81822C7
:10495000AAE700BFAC4801244C31010870310108BE
:104960007C3101088C3101080040003010B504682A
:10497000B4F808212046D4F8101106F0F9FF20B150
:1049800094F8140180F0010010BD012384F8143163
:1049900010BD00BF034600201B68D3F81822C3F8DF
:1049A0001C2270470268D2F81C32D2F818125B1A27
:1049B000DBB2002BF7D0D2F81832D1180133DBB2BA
:1049C00091F81801C2F81832704700BF0368D3F895
:1049D0001C02D3F81832C01AC0B27047564B0122DD
:1049E00000204FF4965103F5805C30B4C3E98A206F
:1049F000C3E98D21CCE97320C3F86424C3F86804AB
:104A0000C3F87024C3F87414C3F8A026C3F8A4062E
:104A1000C3F8AC26C3F8B016C3F8DC28C3F8E00826
:104A2000C3F8E828C3F8EC18C3F8182BC3F81C0B1C
:104A3000C3F8242BC3F8281BC3F8542DC3F8580D12
:104A4000C3F8602DC3F8641DC3F8902FC3F8940F0A
:104A5000C3F89C2FC3F8A01F384C394DCCE9762100
:104A6000CCF80C043748CCF808248378CCF814240C
:104A700002880068CCF8181433494FEA104CE280E1
:104A8000A1F803204B71CA800B7230492372A1F840
:104A900003202F4C4B71CA800B722E49E280237287
:104AA000A1F80320A4F8032063714B712A4CCA803B
:104AB0000B722A49EA8008802B72E280237281F807
:104AC00002C0A1F803204B71CA800B722449A1F8DF
:104AD00003204B71CA800B722249A1F803204B714D
:104AE000CA800B722049088081F802C0A1F8032017
:104AF0004B71CA800B721D49088081F802C0A1F871
:104B000003204B71CA800B721949088081F802C0DA
:104B10001848A1F803204B71CA800B721649A0F8FF
:104B200003204371C2800372A1F803204B71CA8035
:104B30000B7230BC704700BFAC480124F800002461
:104B4000EC0000246400002410010024280100244B
:104B5000040100241C010024D4000024EC5C012486
:104B600034010024E0000024C85C0124E05C01243E
:104B7000D45C0124580000244C00002408B501F046
:104B80003BF8BDE8084001F03BB900BF064808B556
:104B900003680BB102F0FAFA044803681BB1BDE8E0
:104BA000084003F0A1BA08BD188701241081012430
:104BB000064808B503680BB102F0E8FA0448036838
:104BC0001BB1BDE8084003F08FBA08BD1887012467
:104BD00010810124064808B503680BB102F0D6FA2B
:104BE000044803681BB1BDE8084003F07DBA08BD66
:104BF0001887012410810124364BDA6A520062D5ED
:104C00009A6A9A6A9A6A9B6A180600D500BE314B66
:104C10009B6A990600D500BE2E4B9B6ADA0600D52A
:104C200000BE2C4B9B6A1B0700D500BE294B9B6A1C
:104C3000980700D500BE274B9B6AD90700D500BE58
:104C4000244B9B6A1A0400D500BE224B9B6A9B042E
:104C500000D500BE1F4B9B6AD80400D500BE1D4B7B
:104C60009B6A190500D500BE1A4B9B6A5A0500D5F0
:104C700000BE184B9B6A9B0500D500BE154B9B6A76
:104C8000D80500D500BE134B9B6A990100D500BE24
:104C9000104B9B6ADA0100D500BE0E4B9B6A1B03CA
:104CA00000D500BE0B4B9B6A580300D500BE094BD4
:104CB0009B6A990300D500BE064B9B6ADA0306D4B3
:104CC00000BE00BEFEE7DB6A9B07FAD5F8E700BE30
:104CD000F6E700BF00ED00E000F0A0BF2DE9F041D5
:104CE000CEB004464C2200210AA80CF06BFF202213
:104CF000002102A80CF066FFBC2200211EA80CF0C7
:104D000061FF022003F0ECFE2368012B4FF000034B
:104D100054D0534A02250193C820D16A514B21F047
:104D20000101D162D26A02F0010201929A6942F451
:104D300040429A619B6903F440430193019B494AB5
:104D400093699B04FCD548490224002201268B6A02
:104D500004274FF0080823F0030323438B62052345
:104D600016900AA818934FF480331096179419944C
:104D70001597CDF86880CDE91B222122CDE9134497
:104D8000CDE90A2304F096FB00B1FEE73F2203239E
:104D9000294602A8CDE9022300220823CDE90423F5
:104DA00040224023CDE9062340234FF48062CDE921
:104DB000082304F0ADFE0346B8B1FEE7294A0425F6
:104DC0000093F0209169264B41F440419161926932
:104DD00002F440420092DA6A42F00102DA62DB6ACF
:104DE00003F001030093009BA9E720224FF48051B8
:104DF00025934FF440152B9280222D931EA83093BB
:104E0000269135914FF48071249234920C22339480
:104E1000439140F2271120921022CDF884802A97E6
:104E20001F96CDE92E34CDE93B334FF48033CDE9E5
:104E300022463193002446930623CDE93E4527932D
:104E40004FF48063094C2C931E94CDE9281205F091
:104E5000BBF800B1FEE703F069FE4EB0BDE8F0819B
:104E60000004005800480258004402580F130F0372
:104E70002DE9F0410D46044684B0D1E9000184E8F3
:104E8000030000F089FEAE797EB36F460BF0AAF8FE
:104E9000FDF738FF0AF0F6FC2B79002B4ED16B7929
:104EA0009BB1BFF34F8FBFF36F8F394B0022C3F815
:104EB0005022BFF34F8FBFF36F8F5A6942F4003215
:104EC0005A61BFF34F8FBFF36F8F00220023394623
:104ED0003048CDE900230BF019F82E480BF078F894
:104EE0000AF000F904B0BDE8F08120466F46FFF7F4
:104EF000F5FE012400F032FF4FF040534FF480786C
:104F000038460193244BADF80040CDE9023800F05B
:104F100043FF19224FF0404338468DF80F40ADF85B
:104F20000D808DF801408DF80A608DF808200193FE
:104F300000F032FF042000F01FFFA7E7144C00230D
:104F4000C4F88430BFF34F8FD4F8803043F6E07E4E
:104F5000C3F3C906C3F34E334FEA431C0CEA0E00F9
:104F6000334640EA8372013BC4F860225A1CF8D1F0
:104F7000ACF1200C1CF1200FF0D1BFF34F8F63690F
:104F800043F480336361BFF34F8FBFF36F8F86E7C6
:104F900000ED00E0F85C01240E00010304F0E8BE1F
:104FA0001C4B9B6803F17842B2F5003F25D3B3F563
:104FB000803F20D303F16042B2F5003F1FD303F1DD
:104FC0005C42B2F5002F1CD303F17042B2F5902F72
:104FD00019D303F14842B2F5803F16D303F1804262
:104FE000B2F1806F13D303F1E043B3F5000F2CBF90
:104FF00008200720704701207047002070470220DA
:105000007047032070470420704705207047062032
:10501000704700BF00ED00E003480023034A044945
:1050200003600BF0AFBF00BFF85C01240000002458
:10503000F106000810B4204C0022204B83B0D4F8B5
:1050400088101F4841F47001C4F8881019681D4C7D
:1050500041F0010119601A61196808401A49186085
:105060009A61DA611A629A62DA621A635A639A631F
:10507000DA631A645A64186820F4802018601A668B
:10508000D3F8DC2042F06042C3F8DC20D3F8DC30F7
:105090000193019B23681940B1F1005F03D20B4BD0
:1050A0000122C3F80821044B4FF000629A6003B05C
:1050B0005DF8044B704700BF00ED00E0004402586B
:1050C0007FEDF6EA0010005C0000FFFF0080005159
:1050D000704700BF0020704770B50446074E0D466C
:1050E0003046214609F014FB304609F033FB044BEF
:1050F000204629461B689847002070BDDC3A0124F1
:10510000FC7C012470B50446074E0D46304621460E
:1051100009F0FEFA304609F01DFB044B20462946F3
:105120001B689847002070BD783D0124007D012454
:1051300000220949094808B509F0E0FA084907487A
:1051400009F0E6FA074B1A680AB1002008BD064AC2
:1051500000201A6008BD00BFFC6C0124DC3A012469
:10516000FC5C0124FC7C0124D15000080022094988
:10517000094808B509F0C2FA0849074809F0C8FA11
:10518000074B1A680AB1002008BD064A00201A60C1
:1051900008BD00BFFC740124783D0124FC64012497
:1051A000007D0124D150000820280AD0212806D1F2
:1051B000094B18689A889B7908608A808B71002057
:1051C0007047054B0868B1F804C08A791860002060
:1051D000A3F804C09A7170476801002420280AD0FF
:1051E000212806D1094B18689A889B7908608A8023
:1051F0008B7100207047054B0868B1F804C08A79AC
:1052000018600020A3F804C09A7170477001002450
:105210000020704710B5094CD4F89032D3F81432FE
:105220000BB1012010BD0A460146204609F066FA7E
:105230002046BDE8104009F073BA00BFDC3A0124F3
:105240004B4A036830B593428BB04FF00004CDE970
:105250000444CDE90644089404D0464A934249D018
:105260000BB030BD444D4FF4C0524448D5F8E03047
:1052700043F00103C5F8E030D5F8E03003F0010356
:1052800000930223009904A9CDE904230A2308937B
:1052900001F06AFD4FF40072002304A93748069418
:1052A000CDE9042301F060FDD5F8D830224621462F
:1052B00043F000636220C5F8D830D5F8D83003F049
:1052C00000630193019B00F0D3FC622000F00EFD0F
:1052D00022462146632000F0CBFC632000F006FD4F
:1052E00022462146652000F0C3FC652000F0FEFC4C
:1052F0000BB030BD204D4FF4404204A9D5F8E0304A
:1053000043F00203C5F8E030D5F8E03003F00203C3
:105310000293022302981A48CDE904230C23089330
:1053200001F022FDD5F8D830224621464A2043F02C
:105330000073C5F8D830D5F8D83003F00073039364
:10534000039B00F095FC4A2000F0D0FC2246214649
:105350004B2000F08DFC4B2000F0C8FC224621467B
:105360004D2000F085FC4D2000F0C0FC0BB030BD9E
:1053700000000840000004400044025800000258A9
:105380000004025800F57171D0F8040409F04EBA17
:10539000C1EBC10300EB8303D0F80404D3F8082267
:1053A00009F072BAC1EBC10300EB8303D0F8040427
:1053B0009A6C09F0A7BA00BFD0F8040409F046BB04
:1053C000C16810B5044619B1022900D0FEE70121D9
:1053D000D4F8040409F024FBD4F80404BDE8104018
:1053E00009F0F6BA10B50446D0F8040409F01CFB25
:1053F0002268D2F8003E43F00103C2F8003E236A5F
:1054000023B1034A136943F00603136110BD00BFC3
:1054100000ED00E0D0F8040409F010BBD0F804045B
:1054200009F024BBD0F8040409F01EBBD0F8040432
:1054300009F01EBBD0F8040409F01CBB70B5067857
:1054400004461EB1012E30D0002070BD304D09231E
:10545000304AC5F80404C0F8985228462E612E63DD
:10546000C5E9002302230222EB600023C5E90623DD
:1054700000220023C5E9082301220123C5E90A23EC
:1054800002F07AFD00B1FEE78021284603F008FB18
:1054900031464022284603F0D9FA802201212846CD
:1054A00003F0D4FA2678012ECED11B4D09221B4BD6
:1054B00000216A6002222B600223C5F804442846BA
:1054C000EB600023C4F898522961C5E90623002245
:1054D0000023C5E90823C5E90C2301220023C5E9FF
:1054E0000A2302F049FD044600B1FEE74FF40071C3
:1054F000284603F0D5FA21468022284603F0A6FA72
:105500004FF4BA723146284603F0A0FA9CE700BF78
:10551000087D01240000084010810124000004409F
:10552000D0F8980208B502F0BDFD032802D8024B5E
:10553000185C08BD022008BDA83101089446D0F8C7
:1055400098021A4608B5634603F032F9032802D8D8
:10555000024B185C08BD022008BD00BFA83101083D
:10556000D0F8980208B503F061F9032802D8024B7D
:10557000185C08BD022008BDA8310108D0F89802C7
:1055800008B503F0E3F9032802D8024B185C08BD04
:10559000022008BDA8310108D0F8980208B503F030
:1055A00019FA032802D8024B185C08BD022008BD76
:1055B000A83101080A06D0F8983206D4C1EBC1011F
:1055C00003EB810191F8FE01704701F07F01C1EB0F
:1055D000C10103EB810191F83E007047D0F89802B9
:1055E00008B503F0CFF8032802D8024B185C08BDB9
:1055F000022008BDA8310108D0F8980208B503F0D0
:105600007DF9032802D8024B185C08BD022008BDB2
:10561000A8310108D0F8980208B503F03DF9032835
:1056200002D8024B185C08BD022008BDA831010851
:10563000D0F8980203F058B9122301480B80704744
:10564000C4010024122301480B807047B0010024DC
:10565000042301480B807047D801002410B5044C86
:105660000A460448214609F085FC204610BD00BFCB
:1056700018850124AC31010810B5044C0A460448D1
:10568000214609F077FC204610BD00BF1885012493
:10569000BC31010810B5044C0A460448214609F003
:1056A00069FC204610BD00BF18850124D0310108D7
:1056B00010B5044C0A460448214609F05BFC20461C
:1056C00010BD00BF18850124DC31010810B5044C61
:1056D0000A460448214609F04DFC204610BD00BF93
:1056E00018850124EC310108042301480B80704720
:1056F000D801002410B5044C0A460448214609F09C
:1057000039FC204610BD00BF18850124AC310108CA
:10571000464A4FF01A0CD2F80008D2F80838A1F81F
:1057200000C0C31801D142487047180FB3F1204F91
:10573000D2F804184FF0000C3D4A2CBF37303030FF
:1057400082F803C04FF0000C9070C3F3036082F83E
:1057500005C04FF0000C092882F807C04FF0000C7C
:105760008CBF3730303082F809C04FF0000C107118
:10577000C3F3035082F80BC04FF0000C092882F8E5
:105780000DC08CBF373030309071C3F3034009280F
:105790008CBF373030301072C3F3033009288CBF10
:1057A000373030309072C3F3032009288CBF373074
:1057B00030301073C3F3031003F00F0309288CBFBC
:1057C00037303030092B90734FF0000094BF3033E6
:1057D0003733B1F1204FD07313744FEA11734FF088
:1057E00000002CBF37333033507400209374C1F362
:1057F0000363D0740020092B50754FF000008CBF5C
:1058000037333033D0751375C1F303530848092B70
:105810008CBF373330339375C1F30343092B94BFE7
:1058200030333733137600235376704700E0F11F8F
:10583000DC010024464A4FF01A0CD2F80008D2F8D6
:105840000838A1F800C0C31801D142487047180FAA
:10585000B3F1204FD2F804184FF0000C3D4A2CBF92
:105860003730303082F803C04FF0000C9070C3F333
:10587000036082F805C04FF0000C092882F807C0C9
:105880004FF0000C8CBF3730303082F809C04FF039
:10589000000C1071C3F3035082F80BC04FF0000CE2
:1058A000092882F80DC08CBF373030309071C3F3B7
:1058B000034009288CBF373030301072C3F30330F7
:1058C00009288CBF373030309072C3F30320092889
:1058D0008CBF373030301073C3F3031003F00F0365
:1058E00009288CBF37303030092B90734FF00000FF
:1058F00094BF30333733B1F1204FD07313744FEA74
:1059000011734FF000002CBF373330335074002038
:105910009374C1F30363D0740020092B50754FF0CA
:1059200000008CBF37333033D0751375C1F3035388
:105930000848092B8CBF373330339375C1F30343C9
:10594000092B94BF303337331376002353767047D7
:1059500000E0F11FDC01002410B5044C0A460448A5
:10596000214609F007FB204610BD00BF1885012421
:10597000DC31010810B5044C0A460448214609F000
:10598000F9FA204610BD00BF18850124D031010866
:10599000D0F8C00209F060BBD0F8C00209F074BBB7
:1059A000D0F8C00209F07CBB704700BFD0F8C0023D
:1059B00009F062BBD0F8C00209F062BBD0F8D00396
:1059C00008B501F0A3FF032802D8024B185C08BDFC
:1059D000022008BD00320108024B027853F8220071
:1059E000704700BF24320108024B427833F812009E
:1059F000704700BF043201088CB00A2814D8DFE8D1
:105A000000F01523313F4D5B6977859306004D4BC0
:105A1000D3F8E02042F48062C3F8E020D3F8E0300D
:105A200003F480630B930B9B0CB07047454BD3F88A
:105A3000E02042F00102C3F8E020D3F8E03003F0A8
:105A400001030193019BEFE73E4BD3F8E02042F0C6
:105A50000202C3F8E020D3F8E03003F0020302931F
:105A6000029BE1E7374BD3F8E02042F00402C3F891
:105A7000E020D3F8E03003F004030393039BD3E763
:105A8000304BD3F8E02042F00802C3F8E020D3F80E
:105A9000E03003F008030493049BC5E7294BD3F8D7
:105AA000E02042F01002C3F8E020D3F8E03003F029
:105AB00010030593059BB7E7224BD3F8E02042F093
:105AC0002002C3F8E020D3F8E03003F0200306936F
:105AD000069BA9E71B4BD3F8E02042F04002C3F835
