:020000040800F2
:10000000000002209D06000899060008114900081A
:1000100099060008990600089906000800000000EB
:100020000000000000000000000000009906000829
:10003000990600080000000099060008954800088D
:100040009906000899060008990600089906000814
:100050009906000899060008990600089906000804
:1000600099060008990600089906000869350008F5
:100070007535000899060008813500088D3500089F
:1000800075450008992A0008990600089906000895
:1000900099060008990600089906000899060008C4
:1000A00099060008990600089906000899060008B4
:1000B000990600089906000899060008CD2A00084C
:1000C00099060008D92A0008990600085DE400088E
:1000D00099060008653F00080D400008B940000877
:1000E000990600089906000800000000990600081B
:1000F0009906000899060008990600089906000864
:100100009906000899060008990600089906000853
:100110006541000811420008990600089906000888
:10012000990600089906000869E400089DE40008A3
:100130009906000899060008990600089906000823
:1001400000000000000000000000000000000000AF
:10015000990600089906000899060008BD420008A3
:10016000E52A000899060008A5480008C9480008C3
:1001700099060008ED48000899060008990600084D
:10018000990600089906000869430008154400080C
:1001900099060008990600089906000899060008C3
:1001A00099060008990600089906000899060008B3
:1001B0008932000899060008990600089906000887
:1001C0009906000899060008F92500080526000888
:1001D00099060008112600089906000899060008EB
:1001E0009906000899060008990600089906000873
:1001F0009906000899060008990600089906000863
:100200009906000899060008990600089906000852
:100210009906000899060008990600089906000842
:1002200099060008990600089906000800000000D9
:1002300099060008990600080000000099060008C9
:100240009906000899060008990600089906000812
:100250009906000899060008990600089906000802
:1002600099060008990600089906000899060008F2
:100270009906000899060008C14400080000000023
:100280009906000899060008990600080000000079
:080290000000000099060008BF
:1002A00010B5054C237833B9044B13B10448AFF3B0
:1002B00000800123237010BDE8020024000000002C
:1002C0004416010808B5034B1BB103490348AFF3BB
:1002D000008008BD00000000EC0200244416010864
:1002E00001F0FF01102A2BDB10F0070F08D010F8E7
:1002F000013B013A8B422DD010F0070F42B3F6D1EB
:10030000F0B441EA012141EA014122F007047FF003
:1003100000070023F0E80256083C85EA010586EA5A
:10032000010685FA47F5A3FA87F586FA47F6A5FA96
:1003300087F68EB9EED1F0BC01F0FF0102F00702A2
:1003400032B110F8013B013A83EA010313B1F8D14D
:100350000020704701387047002D06BF354603382E
:10036000073815F0010F07D1013015F4807F02BF67
:10037000013015F4C03F0130F0BC0138704700BFB8
:1003800010F8012B11F8013B012A28BF9A42F7D03F
:10039000D01A704753B94AB9002908BF00281CBFBA
:1003A0004FF0FF314FF0FF3000F074B9ADF1080CA1
:1003B0006DE904CE00F006F8DDF804E0DDE9022383
:1003C00004B070472DE9F047089D04468E46002B87
:1003D0004DD18A42944669D9B2FA82F252B101FAF9
:1003E00002F3C2F1200120FA01F10CFA02FC41EA09
:1003F000030E94404FEA1C48210CBEFBF8F61FFA8E
:100400008CF708FB16E341EA034306FB07F1994228
:100410000AD91CEB030306F1FF3080F01F819942DB
:1004200040F21C81023E63445B1AA4B2B3FBF8F0B5
:1004300008FB103344EA034400FB07F7A7420AD93C
:100440001CEB040400F1FF3380F00A81A74240F264
:1004500007816444023840EA0640E41B00261DB1CF
:10046000D4400023C5E900433146BDE8F0878B4204
:1004700009D9002D00F0EF800026C5E900013046C3
:100480003146BDE8F087B3FA83F6002E4AD18B429D
:1004900002D3824200F2F980841A61EB0303012047
:1004A0009E46002DE0D0C5E9004EDDE702B9FFDE33
:1004B000B2FA82F2002A40F09280A1EB0C014FEADE
:1004C0001C471FFA8CFE0126200CB1FBF7F307FB3B
:1004D000131140EA01410EFB03F0884208D91CEBDE
:1004E000010103F1FF3802D2884200F2CB8043467B
:1004F000091AA4B2B1FBF7F007FB101144EA01445A
:100500000EFB00FEA64508D91CEB040400F1FF31E8
:1005100002D2A64500F2BB800846A4EB0E0440EAD6
:1005200003409CE7C6F12007B34022FA07FC4CEADF
:10053000030C20FA07F401FA06F31C43F9404FEAD2
:100540001C4900FA06F3B1FBF9F8200C1FFA8CFEE7
:1005500009FB181140EA014108FB0EF0884202FA3B
:1005600006F20BD91CEB010108F1FF3A80F08880FC
:10057000884240F28580A8F102086144091AA4B2B9
:10058000B1FBF9F009FB101144EA014100FB0EFE3A
:100590008E4508D91CEB010100F1FF346CD28E4569
:1005A0006AD90238614440EA0840A0FB0294A1EBFA
:1005B0000E01A142C846A64656D353D05DB1B3EB57
:1005C000080261EB0E0101FA07F722FA06F3F14087
:1005D0001F43C5E9007100263146BDE8F087C2F12E
:1005E0002003D8400CFA02FC21FA03F391400143A6
:1005F0004FEA1C471FFA8CFEB3FBF7F007FB1036DF
:100600000B0C43EA064300FB0EF69E4204FA02F48A
:1006100008D91CEB030300F1FF382FD29E422DD9DD
:10062000023863449B1B89B2B3FBF7F607FB163312
:1006300041EA034106FB0EF38B4208D91CEB010192
:1006400006F1FF3816D28B4214D9023E6144C91A12
:1006500046EA004638E72E46284605E70646E3E622
:100660001846F8E64B45A9D2B9EB020864EB0C0E2C
:100670000138A3E74646EAE7204694E74046D1E73B
:10068000D0467BE7023B614432E7304609E76444E9
:10069000023842E7704700BFFEE700BF0B480C4A34
:1006A000904203D0121A0B490FF076FE0A480B4A0B
:1006B000904203D0121A00210FF096FE04F046FB80
:1006C0000FF036FE00F0A6FBFEE700BF000000249E
:1006D000E402002474160108E8020024F86B0124E7
:1006E000704700BF704700BF704700BF704700BF32
:1006F000704700BF38B5C468054634B12046246849
:100700000C210FF0A9FB002CF8D1AA680021686821
:1007100092000FF069FE686805F11C030022A968C9
:100720009842C5E9032202D089000FF095FB2846C4
:1007300038BD00BF2DE9F0432DED028B83B0019150
:100740000AB30746884616460024DFF84C907B68BB
:10075000A500DFED0F7A03EB840399ED010A0D4844
:10076000013493ED008A80EE270A0FF09DFA0948C4
:10077000B0EE480A0FF062FAD8F80430A6422B44D3
:1007800083ED000AE3D103B0BDEC028BBDE8F0833A
:10079000000048420403002468070024F0B5044622
:1007A00008304E6883B020600D460F68F74201D0D4
:1007B000002F74D00F2E019642D8012E37D13B78EE
:1007C000237200236660835504F12000EE69A06166
:1007D000AF69F74201D0002F61D00F2E01964ED89D
:1007E000012E27D13B7884F820300023E661835521
:1007F00004F138006E6B20632F6BF74201D0002F9D
:100800004DD00F2E01962AD8012E16D13B7884F8B0
:100810003830002366638355A86CE96C2A6D6B6DD4
:10082000A0642046E1642265636503B0F0BD002E3C
:10083000C7D00DE0002ED8D02AE0002EE9D017E076
:10084000002201A920460FF051FC019B2060A3600B
:10085000324639460FF0A0FD019E2068B1E7002224
:1008600001A904F130000FF041FC019B2063A36358
:10087000324639460FF090FD019E206BC9E70022F9
:1008800001A904F118000FF031FC019BA061236263
:10089000324639460FF080FD019EA069A5E7014868
:1008A0000FF089FB340D01082DE9F04F0023B5B09E
:1008B00082460E46051D0293314628460FF04CFC39
:1008C00006F1180105F118000FF046FCB36C06F1B3
:1008D000300105F130002B65F36C6B650FF03CFCCB
:1008E000029B294607A8AB640023EB64FFF756FF81
:1008F000199B07A91EA81D93FFF750FF60200FF05A
:10090000ADFA002320AA1D9F036000F110030446E6
:100910004760039383601E9B934200F0D580836001
:10092000209B036120AB26AA04F128091E931F9B7C
:10093000C4F82090E36000231F938DF88030249B3F
:10094000934200F0D4802362269BA36226AB2CAA9C
:1009500004F1400C2493259BC4F838C06362002343
:1009600025938DF898302A9B934200F0B580A363BD
:100970002C9B2364DAF878232CAB00202A93DAF836
:1009800074338DF8B000B7FBF2F102FB117153F82C
:1009900021B04FEA81082B9B2B90E363309B2365AA
:1009A000319B6365329BA365339BE365BBF1000F0D
:1009B0006BD0DBF800008E4643689F420DD0016883
:1009C000002962D04B688346B3FBF2F002FB103083
:1009D00086455AD19F420846F1D1DBF80030002B02
:1009E00053D0A06B844503D0216C01310FF034FA51
:1009F000206A814503D0A16A01310FF02DFAA06869
:100A0000039B834203D0216901310FF025FA204670
:100A100060210FF021FA2A982CAB984203D02C9930
:100A200001310FF019FA249826AB984203D0269989
:100A300001310FF011FA1E9820AB984203D0209993
:100A400001310FF009FA139815AB984203D01599AC
:100A500001310FF001FA0D980FAB984203D00F99B6
:100A600001310FF0F9F9079809AB984203D00999C1
:100A700001310FF0F1F9029B5835503613B135B002
:100A8000BDE8F08F0123029316E701230AF5617197
:100A900005A80093DAF880330FF0E0FA9DF81430DF
:100AA00083BBDAF8749359F8083009EB0802002B7D
:100AB0006AD01B68236059F808301C60DAF880336C
:100AC0000133CAF88033A6E79446BCE80F002061E2
:100AD0006161A261E36125E79646BEE80F002064EC
:100AE000CCF80410CCF80820CCF80C3042E794463F
:100AF000BCE80F00A062C9F80410C9F80820C9F8C2
:100B00000C3023E7DDF81880B8F1010F64D0B8F19C
:100B1000005F68D24FEA8802104603920FF09EF9F8
:100B2000039A002181460FF05FFC0AF5637EDAF834
:100B30007C030023CAF87C3388B19C4602460068D7
:100B40005368B3FBF8F108FB113359F8231071B364
:100B50000968116059F823301A600028EED1DAE9EB
:100B6000DD01704502D089000FF076F9B7FBF8F38C
:100B7000CAE9DD9808FB13784FEA880859F808306D
:100B800009EB0802002B94D1DAF87C33CAF87C43D5
:100B9000236043B15B68DAF87813B3FBF1F001FB33
:100BA000103349F823400AF55F73136086E7DAF8DB
:100BB0007C1311600AF55F71CAF87C2349F8231091
:100BC000116829B149F82C209C460028B6D1C6E707
:100BD0009C460028B2D1C2E700230AF56379CAF81F
:100BE0008C33CE46A3E70FF0E3F900BF10B5002227
:100BF00088B0134901230446CDE901120221CDE951
:100C000003324FF41652059101A9CDE9063203F0E3
:100C1000B7FC012806D0204603F034FD012809D096
:100C200008B010BD074801F0B9FC204603F02AFDCA
:100C30000128F5D1044801F0B1FC08B010BD00BF97
:100C400001060107600D01086C0D010870B585688B
:100C500006461DB32C462D68A06B04F14003984254
:100C600003D0216C01310FF0F7F8206A04F128035A
:100C7000984203D0A16A01310FF0EEF8234653F8F1
:100C8000080F0833984203D0216901310FF0E4F8CE
:100C9000602120460FF0E0F8002DDBD172680021C2
:100CA000306892000FF0A0FB0023C6E9023370BD4C
:100CB00010B50446FFF7CAFF206804F11803616805
:100CC000984202D089000FF0C7F8204610BD00BF3F
:100CD00070B51A4B00F55D74064603602046FFF7B9
:100CE000B5FFD6F8740306F56373D6F87813984207
:100CF00002D089000FF0B0F8351D583C206B04F18C
:100D00003803984203D0A16B01310FF0A5F8A06918
:100D100004F12003984203D0216A01310FF09CF8BE
:100D2000234653F8080B984203D0A16801310FF015
:100D300093F8AC42E1D1304670BD00BFBC0D010854
:100D40002DE9F84FD0E900890F4692466FF06041D7
:100D5000A9EB0802B1EBA20F54D093100646A7EB03
:100D60000805012B1C4638BF01241C1948D2002C51
:100D70003CD1A346DAF80030002D4BF8053024DCD6
:100D8000A9EB07090435B9F1000F5D4413DC4D44AC
:100D9000B8F1000F04D1B460C6E900B5BDE8F88F22
:100DA000B168A1EB080140460FF056F8B460C6E9FF
:100DB00000B5BDE8F88F284639464A464D440FF045
:100DC000EBFAB8F1000FE6D0EAE7A9EB07092A46EB
:100DD0004146584604350FF0EDFAB9F1000F5D4475
:100DE000E9DCB1684D44A1EB0801DCE78C4228BF87
:100DF0000C46A40020460FF031F883460444B9E7BE
:100E0000024CF7E702480FF0D9F800BFFCFFFF7F64
:100E10007C0D010870B52DED028B9FED308A84B0FA
:100E20002F4818EE101A18EE105A00F0B5F90421E8
:100E30002B4800F02DF90321294800F009F9294930
:100E4000274800F001F92848FFF7D0FE244800F0B9
:100E50001BF9264E26480EF041FE26480EF08EFE67
:100E60008DED018A8DED028A8DED038A1E4803F017
:100E700039FC0028FAD01C4803F020FC0090DDE982
:100E80000213994225D041F8040B0291164803F051
:100E900029FC04460028E9D1134803F007FCDDE9EA
:100EA0000131CA1A8B424FEAA202DFD0E1070ED409
:100EB000198808EE101A0134F8EE487A06EB85011D
:100EC00004339442C1ED007AD0D0E107F0D51D88FB
:100ED000F1E76A4601A8FFF733FFD7E700000000FB
:100EE00078030024350700083835012468070024FA
:100EF00010030024040300243E480122F8B500F149
:100F00001C0100244FF07E538260416043613A4AE5
:100F10003A493B4DC0E90344C0E906440EF024FFC2
:100F20003848354A38490460446104620EF01CFFB9
:100F3000364B3748304A37491C6004600EF014FFC6
:100F4000354B4FF60B71354A05F55C7C2A60C3E9D9
:100F50000014C3E902442B46002403F10C0003F102
:100F6000240103F13C021C7383F8244083F83C40C5
:100F7000C3E90104C3E90714C3E90D2458336345E9
:100F8000EAD127484FF07E5601271B4AC5F8740363
:100F9000A0F563702349C5F87C43C5F87873C5F89C
:100FA0008043C5F88463C5F89043C5E9E2440EF078
:100FB000DBFE114A1C491D480EF0D6FE1C480E4AA5
:100FC00000F118031B49476003608460C460066138
:100FD000C461C0E905440EF0C7FE074A1649174828
:100FE0000EF0C2FE044A16491648BDE8F8400EF05D
:100FF000BBBE00BF1835012400000024F506000820
:10100000B403002478030024F106000838350124D5
:1010100074030024ED06000860030024BC0D0108E1
:1010200040070024D10C0008E906000890070024BE
:1010300048070024B10C0008E10600081003002452
:10104000E506000804030024143001F003BA00BFD1
:1010500038B500F1140504462DED028B284601F049
:10106000B5F9284601F0AEF92846B0EE408A01F005
:1010700097F9D0ED007AF8EE677A88EE277ABDEC22
:10108000028B84ED0E7A38BD143001F09BB900BF9D
:1010900038B500F1140504462DED028B284601F009
:1010A00083F9284601F08EF92846B0EE408A01F017
:1010B00077F9D0ED007AF8EE677A88EE277ABDEC02
:1010C000028B84ED0E7A38BDF0B5032399B000276A
:1010D0000125129306462C4B09A81595CDE90E73F0
:1010E00040F20453ADF84030284BCDE91357099333
:1010F00001F094FA09A801F06DFB002835D1244BCA
:1011000004AF04460090CDF84230102339460495D0
:101110008DF820301F4BCDE91650CDE906506846BA
:10112000059301F0E5FC0823009A01A909A8ADF890
:1011300004508DF8064009940295039300F0E4F8FA
:1011400000230EA938463024049302F099FA0322B2
:101150004FF07E5309A906F114000B93CDE9094223
:10116000049A01F0EBF819B0F0BD40F60132084BDB
:10117000169704AFADF824200998CDF842301795A2
:1011800000F082F8DCE700BF04020404030300015E
:10119000040604030704010B2DE9F04304462DED7A
:1011A000028B83B0002948D0012140F201120023B4
:1011B0000091ADF804208DF80630304A0126304BFE
:1011C000271D304904F12908626040F20272A360D1
:1011D00040F60663E16004F125092682A4F8252083
:1011E00084F82760A4F8293084F82B6003F064FDAC
:1011F0006946054648B304F130008DF8066003F0F7
:10120000C3FC072D34D104F114052046FFF75CFF21
:10121000284601F0D7F82846B0EE408A01F0C0F821
:10122000D0ED007AF8EE677A88EE277A84ED0E7AB0
:1012300003B0BDEC028BBDE8F08340F201130091D6
:101240008DF80610ADF80430B7E704F1300003F074
:101250009BFC3946204601F093FE484601F0DEF93A
:10126000404601F0DBF904F1120000F077F9CAE71B
:101270003946204601F084FEC5E700BF0508050990
:1012800005070506050A060610B584B003460124C5
:10129000ADF8040003A8ADF80C30ADF80E4001F035
:1012A000BDF9214603A801F0A3FA204603F0A0FBF4
:1012B000002103A801F09CFA204603F099FB214687
:1012C00003A801F095FA04B010BD00BF10B5C2F339
:1012D000002384B00C46017C8DF80D2043EA4402C3
:1012E000FA2402238DF80C2003AA009401F096FC46
:1012F00018B10124204604B010BD04460A2003F0B2
:1013000077FB204604B010BD034670B543F8042BAC
:10131000044684B007C983E80700A37983B91A217A
:101320000B461E22FA2523742046ADF80C2002231A
:1013300003AA009501F072FC28B1012004B070BD31
:101340001B210B46EDE70A2003F052FB4FF4B85285
:1013500000950223ADF80C20204603AA217C01F061
:101360005DFC0028E9D10A2003F042FB41F2027241
:1013700000950223ADF80C20204603AA217C01F041
:101380004DFC0028D9D10A2003F032FB042200953D
:101390000223ADF80C20204603AA217C01F03EFC7C
:1013A0000028CAD10A2003F023FB0622009502235D
:1013B000ADF80C20204603AA217C01F02FFC002868
:1013C000BBD10A2003F014FB41F20822009502234E
:1013D000ADF80C20204603AA217C01F01FFC002858
:1013E000ABD10A20064603F003FB0095022303AAB3
:1013F000217C2046ADF80C6001F010FC00289CD147
:10140000304603F0F5FA009522790C232046002A95
:101410008DF80C3003AA4FF0020314BF6221422161
:101420008DF80D10217C01F0F9FB002885D13046A4
:1014300003F0DEFA2279D4E902310B43DBB20AB9B8
:1014400043F0400362790AB143F020030E22FA25EB
:101450008DF80D302046009502238DF80C2003AA4C
:10146000217C01F0DBFB00287FF467AF0A2003F04A
:10147000BFFA102200950223ADF80C20204603AAE3
:10148000217C01F0CBFB00287FF457AF0A2003F04A
:10149000AFFA122100950223ADF80C1003AA217CAB
:1014A000204601F0BBFB00287FF447AF0A2003F081
:1014B0009FFA012209212046FFF708FF003818BFD4
:1014C00001203BE7F0B5102387B0234C0122002513
:1014D0000126002702A920460195CDE902234FF4F9
:1014E0008052CDE9046709F0D5FB642003F0A0FE2B
:1014F00002A94FF480522046CDE904670226102746
:10150000CDE9026709F0C6FB0322102302A9204699
:10151000CDE9022300230422CDE904234FF48052B5
:1015200009F0B8FB40F23223042202A901931023F0
:101530002046CDE90223019A012305924FF48052FF
:10154000049309F0A7FB40F60601204609F0C2FB10
:10155000284607B0F0BD00BF443501241C4B0022D3
:101560001C494FF0400C30B5054689B00220596047
:1015700007219A601A620124DA620A224FF4006E8F
:10158000DC6006922022CDE9000104200821CDE98B
:10159000020103201021CDE9040108206946C3E9B6
:1015A00004024FF4C072181DC3E906C24FF4805202
:1015B000C3E909E209F044FB38B92846FFF782FF86
:1015C000003818BF012009B030BD204609B030BD39
:1015D0004035012440410052614A0021D0B51368D2
:1015E0008EB00A91002B40F0B9805E4B01214FF67E
:1015F00083700C2411600221D3F8D4200026032725
:1016000042F48052C3F8D420D3F8D42002F480529C
:101610000092009AD3F8E02042F01002C3F8E020D4
:10162000D3F8E02002F010020192019AD3F8E020F2
:1016300042F04002C3F8E020D3F8E02002F040027C
:101640000292029AD3F8E02042F00802C3F8E020A8
:10165000D3F8E02002F008020392039AD3F8E020C6
:1016600042F48072C3F8E020D3F8E02002F48072E4
:101670000492049AD3F8E02042F08002C3F8E020FC
:10168000D3F8E02002F080020592059AD3F8E0201A
:1016900042F02002C3F8E020D3F8E02002F020025C
:1016A0000692069AD3F8E02042F00402C3F8E02044
:1016B000D3F8E0300C9403F0040307930323079A54
:1016C0000B93CDE9080108A9274804F057FE48F21A
:1016D0003712022308A925480C94CDE90823CDE947
:1016E0000A6704F04BFE4CF20372022308A920485B
:1016F0000C94CDE90823CDE90A6704F03FFE40F2DF
:10170000FF62022308A91B480C94CDE90823CDE908
:101710000A6704F033FE4FF60C72022308A916483C
:101720000C94CDE90823CDE90A6704F027FE4FF6B3
:101730003F02022308A911480C94CDE90823CDE902
:101740000A6704F01BFE2022022308A90A480C9411
:10175000CDE90A67CDE9082304F010FE0EB0D0BD34
:101760003C35012400440258001002580018025869
:10177000000C025800200258001C025800140258A5
:101780002DE9F04FDFF8108406460D46144608F1A7
:1017900014002DED028B89B000AF02F069F8D8F883
:1017A000143073B3D8F81830D8F80490002B43697C
:1017B0000BBF4FF0080A4FF0100A4FF0020B4FF02A
:1017C000040BB9F1000F2AD0A200EA46012B02F166
:1017D000070222F00702ADEB020D6846ADEB020DE9
:1017E000694600F03F81022B00F0D680002B6FD0BD
:1017F0002246C847D5462437BD46BDEC028BBDE81E
:10180000F08FD8F81830002BF5D0D8F804904FF0AE
:10181000080A4FF0020B4369B9F1000FD4D1FB6104
:10182000D8F80030BB61002BE5D0D54802F092F823
:101830006B46BBF1020F786108EE103AFB6900F0CD
:1018400083816A465146A2EBC40295466200EA468D
:10185000B2FBFBF2AAEBC40085460AEB8200EE461F
:10186000F861ADEB010DF8690EEB820CC7F810C002
:10187000EC46ADEB010D00EB8201CCF80400CCF896
:10188000081001EB82013869E946CCF80C1000EB36
:101890008201CCF800A001EB8202C9E900E0C9E9AD
:1018A0000212012B00F06483022B00F06C82002BEB
:1018B00000F08081620849466046BB69984718EE8F
:1018C000103A24379D46BD46BDEC028BBDE8F08F33
:1018D000002C8DD01A46D8ED0B6A9FEDB27A844663
:1018E000331D36F922E00CF1080C07EE90EA33F9CB
:1018F00022E00232F8EEE77A944267EE877A67EEEA
:10190000A67A4CED027A07EE90EAF8EEE77A67EEF7
:10191000877A67EEA67A4CED017AE2D8F961224621
:10192000C847984ED8ED046A0020F9692B1D9FED39
:101930009E7A9FED9E6ADFED9E5A22E0F4EEC67A13
:10194000F1EE10FAC0F2C88447F6FE72D1ED017ACA
:1019500045F8202066EEA77AF4EEC77AF1EE10FA89
:1019600040F2F080F4EEC67AF1EE10FAC0F2D584BF
:1019700047F6FE7243F820200230083184427FF699
:1019800039AFD1ED007A66EEA77AF4EEC77AF1EEC0
:1019900010FAD3D83246D9E7002C3FF429AFD8ED5E
:1019A0000B6A84469FED787A0022331D8E4656F8E6
:1019B00022100CF1080C07EE901A53F82210023294
:1019C000F8EEE77A944267EE877A67EEA67A4CEDF6
:1019D000027A07EE901AF8EEE77A67EE877A67EEFA
:1019E000A67A4CED017AE2D871462246C7F81CE08F
:1019F000C847664ED8ED046A0020F9692B1D9FED9B
:101A00006A7A9FED6A6ADFF894C120E0F4EEC67A44
:101A1000F1EE10FAC0F279843246D1ED017A45F840
:101A2000202066EEA77AF4EEC77AF1EE10FA40F2C3
:101A30008780F4EEC67AF1EE10FAC0F25E84324688
:101A400043F820200230083184427FF6D3AED1ED36
:101A5000007A66EEA77AF4EEC77AF1EE10FAD5D8DE
:101A60006246DAE7002C3FF4C3AED8ED0B6A864637
:101A70009FED477A4FF0000C331D56F82C200EF1E5
:101A8000080E82F40002A2F5000207EE902A53F835
:101A90002C200CF1020CF8EEE77A82F40002644587
:101AA000A2F5000267EE877A67EEA67A4EED027A1B
:101AB00007EE902AF8EEE77A67EE877A67EEA67A65
:101AC0004EED017AD9D8F9612246C847314ED8ED9A
:101AD000046A0020F9692B1D9FED337A9FED336A6C
:101AE000DFF8BCC01FE0F4EEC67AF1EE10FAC0F2E7
:101AF000FC833246D1ED017A45F8202066EEA77AC4
:101B0000F4EEC77AF1EE10FA18D9F4EEC67AF1EED7
:101B100010FAC0F2DA83324643F82020023008314E
:101B200084427FF667AED1ED007A66EEA77AF4EED6
:101B3000C77AF1EE10FAD6D86246DBE76246EBE7E9
:101B400062467DE7324615E7A100D64662080731B6
:101B500021F00701ADEB010DEA46ADEB010D694641
:101B6000ADEB0E0D0AEB8200EC46ADEB0E0D01EB7A
:101B70008202F861E946CCE900A0C9E9001290E6CA
:101B8000903501240280FFFF000000300082FF7FBB
:101B90000000003482FF7F0078350124007E008041
:101BA0007E0080FF0000003804FF7FBF04FF7F3FFE
:101BB00000FEFF46002C00F0C982BBF1020FD8F8EE
:101BC000202000F0FA827969C7F8049002EB810EB8
:101BD0005FED0C5A8A00DCF808100EF104007A61FF
:101BE0001A46DCF80C303B61331DD7F810903D618C
:101BF000FD69C7E902CB8C46834636F92210D8ED41
:101C00000B7A06EE101A33F9221006EE901A3EF9FE
:101C10002210B8EEC66A07EE101AF8EEE66A3BF933
:101C20002210B8EEC77A26EE256A66EEA56A27EE80
:101C3000257A26EE276A66EEA76A27EE277A07EE50
:101C4000901A51080232F8EEE77A0AEB81009442CA
:101C500080ED006A05EB810067EEA57AC0ED006AB1
:101C60000CEB810009EB810180ED007A98ED0B7A95
:101C700067EE877AC1ED007ABFD8D7F804903D6946
:101C8000D7E902CB60466208BB6949469847D8F855
:101C900028307A69D8ED046A1A441FED3D7A1FEDA9
:101CA0003D6A2B1D904602F1040A5FED3F5A002267
:101CB000A84ED9E900EC51E0F4EEC67AF1EE10FA44
:101CC000C0F2C78247F6FE7045F822000CEB010017
:101CD000D0ED007A66EEA77AF4EEC77AF1EE10FA4C
:101CE0004BD9F4EEC67AF1EE10FAC0F2BA8247F69A
:101CF000FE70BBF1020F43F822002BD0D9F8080088
:101D00000844D0ED007A66EEA77AF4EEC77AF1EED9
:101D100010FA36D9F4EEC67AF1EE10FAC0F2CD829E
:101D200047F6FE7048F82200D9F80C000144D1EDC6
:101D3000007A66EEA77AF4EEC77AF1EE10FA1ED9B1
:101D4000F4EEC67AF1EE10FAC0F2AF8247F6FE71F9
:101D50004AF82210023294427FF6B1AD51080EEBE0
:101D600081008900D0ED007A66EEA77AF4EEC77A9A
:101D7000F1EE10FAA0D83046A6E73046B9E7314672
:101D8000E6E73046CEE7002C00F0E081BBF1020F21
:101D9000D8F8203000F0E1817A69DCF8081003EB14
:101DA000820EC7F804909300DFED6B5A0EF1040029
:101DB00000227B61DCF80C303B61331DD7F81090BA
:101DC0003D61FD69C7E902CB8C46834656F8221077
:101DD000D8ED0B7A07EE101A53F82210B8EEC76A46
:101DE00007EE101A5EF82210F8EEC76A07EE101A16
:101DF00026EE256A5BF82210B8EEC77A66EEA56A71
:101E000026EE276A27EE257A66EEA76A27EE277A5E
:101E100007EE901A51080232F8EEE77A0AEB8100D9
:101E2000944280ED006A05EB810067EEA57AC0ED73
:101E3000006A0CEB810009EB810180ED007A98EDDE
:101E40000B7A67EE877AC1ED007ABFD8D7F8049095
:101E50003D69D7E902CB60466208BB6949469847AD
:101E6000D8F828307A69D8ED046A1A449FED3E7A92
:101E70009FED3E6A131D9246DFF8E4C00022FB612D
:101E80002B1D364ED9E9008E4EE0F4EEC67AF1EE07
:101E900010FAC0F2FC81304645F822000EEB01003A
:101EA000D0ED007A66EEA77AF4EEC77AF1EE10FA7A
:101EB00049D9F4EEC67AF1EE10FAC0F2EF8130465D
:101EC000BBF1020F43F822002AD0D9F808000844D9
:101ED000D0ED007A66EEA77AF4EEC77AF1EE10FA4A
:101EE00035D9F4EEC67AF1EE10FAC0F2C981304667
:101EF0004AF82200D9F80C000144D1ED007A66EED0
:101F0000A77AF4EEC77AF1EE10FA1ED9F4EEC67A8B
:101F1000F1EE10FAC0F2AD813146F86940F82210B6
:101F2000023294427FF6CBAC510808EB8100890065
:101F3000D0ED007A66EEA77AF4EEC77AF1EE10FAE9
:101F4000A3D86046A8E76046BAE76146E5E7604681
:101F5000CEE700BF0280FFFF000000300082FF7F5D
:101F6000007E00800000003404FF7FBF04FF7F3F3D
:101F7000002C00F0EB807A690021D8F82030C7F8F7
:101F8000109003EB820ED7F81C909300FD610EF1C8
:101F900004021FED0C6A7B61331D154656F82120A3
:101FA0004808D8ED0B6ABBF1020F82F40002A2F5DB
:101FB000000207EE902A53F8212082F40002B8EEC6
:101FC000E77AA2F5000227EE067A07EE902A0AEBDE
:101FD0008002F8EEE77A27EE267A67EE867A82EDBF
:101FE000007A09EB80024FEA800067EEA67AC2ED24
:101FF000007A27D05EF8212082F40002A2F50002C8
:1020000007EE902A55F8212082F40002B8EEE77A14
:10201000A2F5000227EE067A07EE902ADCF80820E7
:10202000F8EEE77A024427EE267A67EE867A82EDAA
:10203000007A98ED0B7ADCF80C2067EE877A024480
:10204000C2ED007A02318C42A8D8D7F810906046D1
:102050006208BB694946FD699847D8F828307A6913
:10206000D8ED046A1A441FED407A1FED406A131D33
:102070009246DFF8C4C20022FB612B1DAB4ED9E9AA
:10208000008E4EE0F4EEC67AF1EE10FAC0F2C58092
:10209000304645F822000EEB0100D0ED007A66EEE6
:1020A000A77AF4EEC77AF1EE10FA49D9F4EEC67ABF
:1020B000F1EE10FAC0F2BF803046BBF1020F43F8D8
:1020C00022002AD0D9F808000844D0ED007A66EE44
:1020D000A77AF4EEC77AF1EE10FA35D9F4EEC67AA3
:1020E000F1EE10FAC0F2AE8030464AF82200D9F87C
:1020F0000C000144D1ED007A66EEA77AF4EEC77ABF
:10210000F1EE10FA1ED9F4EEC67AF1EE10FAC0F232
:102110008B803146F86940F82210023294427FF6F3
:10212000CEAB510808EB81008900D0ED007A66EE55
:10213000A77AF4EEC77AF1EE10FAA3D86046A8E7C2
:102140006046BAE76146E5E76046CEE72246494683
:102150006046BB699847FFF7B2BBC7F810B00022D2
:1021600098ED0B6A331DDFED726AD7F81CB0786901
:1021700056F8221007EE901A53F82210B8EEE77ABC
:1021800007EE901A51080232F8EEE77A27EE267A27
:102190000AEB810E94420BEB810167EEA67A27EEE3
:1021A000067A67EE867A8EED007AC1ED007ADFD886
:1021B0008300D7F810B07B614DE61A46C7F810B01F
:1021C00098ED0B6A331DDFED5B6AD7F81CB07869B8
:1021D00036F9221007EE101A33F9221007EE901A82
:1021E000B8EEC77A51080232F8EEE77A27EE267A7F
:1021F0000AEB810E94420BEB810167EEA67A27EE83
:10220000067A67EE867A8EED007AC1ED007ADFD825
:102210008300D7F810B07B6134E5F0EE675AFEEE2C
:10222000E45A15EE900A34E7F0EE675AFEEEE45AEF
:1022300015EE901A6EE7F0EE675AFEEEE45A15EED0
:10224000900A3AE7F0EE675AFEEEE45A15EE900A6D
:102250004BE767EEA57AFDEEE77A17EE900A00B23B
:1022600032E567EEA57AFDEEE77A17EE900A00B246
:102270003FE5F0EE675AFEEEE05A15EE901A4CE696
:10228000F0EE675AFEEEE05A15EE900A30E6F0EEF8
:10229000675AFEEEE05A15EE900AFDE5F0EE675A39
:1022A000FEEEE05A15EE900A0AE667EEA57AFDEE1C
:1022B000E77A17EE901A09B24AE567EEA57AFDEEC5
:1022C000E77A17EE900A00B22CE5F0EE675AFEEEC0
:1022D000E45A15EE902A1FE467EEA57AFDEEE77A40
:1022E00017EE902A12B2FFF731BBF0EE675AFEEEFE
:1022F000E45A15EE902AFFF7FDBBF0EE675AFEEEAA
:10230000E05A15EE902AFFF79BBBF0EE675AFEEEFF
:10231000E05A15EE902AFFF780BB67EEA57AFDEE36
:10232000E77A17EE902A12B2FFF724BB82FF7F00F4
:1023300000000030000000387E0080FF30B5154CF2
:10234000154685B0046004F1080C01AB07C98CE8A0
:102350000700D4ED047AF5EEC07A83E80700F1EEC9
:1023600010FA14DDF7EE006A86EEA77A84ED0B7A98
:102370006DB1204640F8145F01F07AFA064903690E
:102380000020064AE1616262E36005B030BD0120D1
:1023900005B030BD78350124002000300000003049
:1023A00000680830704700BFB1F5807F03680A46B7
:1023B00028BF4FF48072B1F5807F9A6094BF0020EF
:1023C000012070470068143001F0B2BA70B504689B
:1023D0008AB06369E160CBB104F11405284601F0CD
:1023E00047FA8446EE46E668BCE80F00AEE80F0008
:1023F000BCE80F00AEE80F009CE803008EE8030085
:1024000069462846049601F03BF9F8B9A069D8B1AD
:1024100004F11805284601F02BFA8446EE46E468DC
:10242000BCE80F00AEE80F00BCE80F00AEE80F00FC
:102430009CE803008EE8030069462846049401F0F6
:102440001FF9003818BF01200AB070BD01200AB082
:1024500070BD00BF30B5046883B00D46A3694BB1B1
:10246000A3680020A26A216A9B00009004F1180072
:1024700001F000FAA3680748626A9B00E1690090D6
:1024800004F1140001F0F6F90020C4E9005003B093
:1024900030BD00BF81170008024B0022C3E90522AE
:1024A000704700BF78350124704700BFF8B5134F5F
:1024B0003C687F2C07D98023114A42F224411C46F4
:1024C0003B60A2F87E100F4D2B68012B0AD90C4EF1
:1024D0000D4D22463146284600F084F80028F8D1F8
:1024E0003860F8BD22460649074800F07BF800280E
:1024F000F7D12B68386001332B60F8BDAC3501246F
:10250000B0350124A83501243036012430B4154CEF
:102510002168F1B14B1E144DE81810F801298C46C2
:1025200019460A2A01D00D2A02D14BB1013BF4E72A
:102530000CF102037F2B10D98023236030BC70473D
:102540000122022323600D200A236854AB5430BCBF
:10255000704701220223044DF4E70CF101026146A9
:10256000F0E700BFAC350124B035012410B5094CAB
:1025700002460B46084821680844C1F180010EF06C
:1025800061F8236818442060FFF7C0FFFFF78EFF53
:1025900010BD00BFAC350124B03501240FB400B527
:1025A00083B004A951F8040B0191FFF7DFFF03B0DA
:1025B0005DF804EB04B07047064A0749074808B5C0
:1025C0000DF0D2FB034A04490548BDE808400DF070
:1025D000CBBB00BF00000024A92400083036012432
:1025E00034360124084691B208B502F0FDFB0038EC
:1025F00018BF012008BD00BF014804F0C7BF00BFDD
:10260000B8550124014804F0C1BF00BFB8550124EA
:10261000014804F0BBBF00BFB85501248378022BEA
:1026200030B504468FB037D0032B33D0012B31D0D7
:1026300000230A93E378012B2AD0022B28D0002311
:102640000B93002320460C9302F0D0FC0546204655
:1026500002F0D4FC23780990082B13D8DFE803F0AC
:102660001F3245586B7E91A40500594BD3F8E020EA
:1026700042F48072C3F8E020D3F8E03003F48073B2
:102680000893089B09A9284603F078FE0FB030BDD7
:102690000B93D6E70A93CDE711230A93CAE74C4B75
:1026A00009A92846D3F8E02042F00102C3F8E0204F
:1026B000D3F8E03003F001030093009B03F05EFECB
:1026C0000FB030BD424B09A92846D3F8E02042F0B4
:1026D0000202C3F8E020D3F8E03003F002030193D4
:1026E000019B03F04BFE0FB030BD394B09A92846C2
:1026F000D3F8E02042F00402C3F8E020D3F8E03041
:1027000003F004030293029B03F038FE0FB030BDC8
:102710002F4B09A92846D3F8E02042F00802C3F85D
:10272000E020D3F8E03003F008030393039B03F0A9
:1027300025FE0FB030BD264B09A92846D3F8E0206E
:1027400042F01002C3F8E020D3F8E03003F01003A9
:102750000493049B03F012FE0FB030BD1C4B09A97B
:102760002846D3F8E02042F02002C3F8E020D3F856
:10277000E03003F020030593059B03F0FFFD0FB04D
:1027800030BD134B09A92846D3F8E02042F040029F
:10279000C3F8E020D3F8E03003F040030693069B33
:1027A00003F0ECFD0FB030BD094B09A92846D3F862
:1027B000E02042F08002C3F8E020D3F8E03003F0DC
:1027C00080030793079B03F0D9FD0FB030BD00BF16
:1027D0000044025838B5054602F008FC0446284675
:1027E00002F00CFC01462046BDE8384003F0CEBFA5
:1027F00070B506460D4602F0F9FB0446304602F07D
:10280000FDFB2A1E0146204618BF0122BDE870408C
:1028100003F0C2BF0023122270B586B0CDE90223B7
:1028200004930368032B01D804230593061D841D1C
:10283000304602F0DBFB0546304602F0DFFB034684
:1028400001A92846019303F099FD204602F0CEFB32
:10285000034620461C4602F0D1FB01A90346204650
:10286000019303F08BFD06B070BD00BF634A03689F
:10287000934210B58CB028D0614A934258D0614A37
:10288000934200F09480604A934201D00CB010BD96
:102890005E4C5F48D4F8E03043F00203C4F8E03007
:1028A000D4F8E03003F002030A930A9BFFF7B2FF6B
:1028B000D4F8F43043F08003C4F8F430D4F8F430A2
:1028C00003F080030B930B9BE0E7504C5148D4F886
:1028D000E03043F00203C4F8E030D4F8E03003F015
:1028E00002030193019BFFF795FFD4F8E830002223
:1028F0001F2043F400131146C4F8E830D4F8E83040
:1029000003F400130293029BD4F8D83043F0010380
:10291000C4F8D830D4F8D83003F001030393039BF4
:1029200002F0B0FC1F200CB0BDE8104002F0E8BC83
:10293000364C3948D4F8E03043F08003C4F8E03036
:10294000D4F8E03003F080030493049BD4F8E03023
:1029500043F00203C4F8E030D4F8E03003F002039F
:102960000593059BFFF756FFD4F8E830002221209D
:1029700043F480031146C4F8E830D4F8E83003F497
:1029800080030693069BD4F8D83043F00103C4F8C3
:10299000D830D4F8D83003F001030793079B02F036
:1029A00071FC21200CB0BDE8104002F0A9BC1B480E
:1029B000FFF730FF154B00224820D3F8E8401146BE
:1029C00044F40004C3F8E840D3F8E84004F40004F9
:1029D0000894089CD3F8D84044F00104C3F8D840C8
:1029E000D3F8D83003F001030993099B02F04AFCA5
:1029F00048200CB0BDE8104002F082BC00540040FA
:102A000000580040005C0040001C00580044025880
:102A1000603B0124D8380124B0390124883A0124CC
:102A20002DE9F0431A4B87B000254FF010099E4660
:102A3000EC46184BFF22E04667461A700EF1180666
:102A40000EF13004CDE90055CDE90255ADF8009006
:102A5000BCE80F00CDE90455AEE80F009CE8030088
:102A60000095ADF800908EE80300B8E80F000FC69F
:102A70009CE803000095ADF8009086E803000FCFB6
:102A80000FC49CE8030084E8030007B0BDE8F083AE
:102A900004000024D438012410B5EFF3108472B67A
:102AA000084B1A78120602D504B962B610BD1B781D
:102AB000D82205485BB202FB0300143003F00CF986
:102AC000F2E700BFD4380124D8380124014804F0CB
:102AD000FBBC00BF64390124014804F0F5BC00BF11
:102AE0003C3A0124014804F0EFBC00BF143B012430
:102AF0002DE9F0430F68D8243F4D85B007FB04F45F
:102B0000032F05EB0403036040DCCB680E46012B6A
:102B10003CD84DD04FF0D808B646DFF8FC9008FB03
:102B20000758BEE80F00C446ACE80F00DEF80030DE
:102B30000DF1100ECCF80030D8F808C099E80F005D
:102B40000EE90F000EEB8703BCF1010F53F8103CA8
:102B5000C8F88C3031D0BCF1020F42D0BCF1000F6C
:102B600035D0317C8C34D823002201202C4403FB47
:102B700007534900C3E92602C3F894102046C3E96D
:102B80002822C3E92A2204F091FA18B1012005B0E5
:102B9000BDE8F0830146204604F0A2FC0028F5D1F0
:102BA0000146204604F0C6FC003818BF0120EEE7BD
:102BB0000B7C103B672BADD9E8E702F07BF80F4B9D
:102BC00098420CBF0E4B0F4BC8F89030C9E702F08B
:102BD00071F80A4B98420CBF0B4B0C4BC8F8903065
:102BE000BFE702F067F8054B98420CBF084B094B52
:102BF000C8F89030B5E700BFD8380124000E270789
:102C00002D0FB0303211D0205F4390608A62E030E7
:102C1000200BA0101A098010F80C01082DE9F041D2
:102C2000D0F8008082B00D4617461E4608F18C048D
:102C3000204604F051FC2028FAD1D8F80C3073B9A2
:102C40006D002046089C33463A46A9B2009404F031
:102C500083FA003818BF012002B0BDE8F081089B5C
:102C600032463946204604F04BFBF2E7044B102273
:102C70001A7483F8E82083F8C02183F898227047FB
:102C8000D838012430B5002395B04FF48071062266
:102C900004460B9306921393CDE90C13CDE90E3342
:102CA000CDE9113302F008F807282BD004F1100504
:102CB00041F2883206A9284605F04EFA28B10123D0
:102CC000184684F85C3015B030BD0222022306A9F4
:102CD0002846CDE9002310220123CDE9022300225A
:102CE0004FF48003CDE9042305224FF08073069250
:102CF0006A460F9341F2883305F09AFB0028DED133
:102D000015B030BD0323012084F85C3015B030BD10
:102D100070B50023A4B04FF080724FF48075044664
:102D2000ADF806300D93CDE910320122CDE90E53F6
:102D3000CDE91223CDE91433002943D0F02300F16B
:102D4000100508AEADF80630C02341F28832314696
:102D50002846089305F000FA28B10123184684F8A4
:102D60005C3024B070BD41F288320DF10601284676
:102D700005F05CFA03460028EFD105224FF480717C
:102D80001E93284616924FF080721B9321931F9238
:102D900002AA9FED1F7BCDE91C13CDE922338DEDF7
:102DA000027B9FED1D7B41F2883316A98DED047BDC
:102DB0009FED1B7B8DED067B05F03AFB0028CCD107
:102DC00024B070BD00F1100508AE612341F28832D5
:102DD00031462846089305F0BFF90028BDD141F2DD
:102DE00088320DF10601284605F09EFA0028B4D17C
:102DF000BDF80630204623F0780343F04003ADF8D9
:102E00000630FFF73FFF00289ED0A6E7AFF3008013
:102E100000000000010000001000000001000000A0
:102E200000000000000040002DE9F04F00234FF4A7
:102E3000807501264FF0807804462DED028BABB0F3
:102E40008DF8073013932193299314950E96CDF89E
:102E50005C80CDE91533CDE91863CDE91A33CDE9AE
:102E60002253CDE92433CDE9273306231C9301F007
:102E700023FF072808D004F1100741F288321CA96B
:102E8000384605F069F940B10123184684F85C30F2
:102E90002BB0BDEC028BBDE8F08F4FF0020A4FF073
:102EA000020B4FF0050941F2883308AA1CA93846E5
:102EB000CDF89480CDF870909FED2D8BCDE908ABC7
:102EC0004FF0000A4FF4800B8DED0A8BCDE90CAB6F
:102ED00005F0AEFA0028D7D141F2883238460EA963
:102EE00005F03AF90028CFD1402341F288320DF1A4
:102EF000070138468DF8073005F098F90028C3D14E
:102F000041F288330EA902AA3846CDF83890CDF8A0
:102F10005C809FED197B8DED048BCDE906AB8DEDCB
:102F2000027B05F085FA03460028ADD1CDF87090FC
:102F30004FF00109CDF894804FF00008219308AAC2
:102F400029931CA938462295CDE92333CDE92733AF
:102F500041F288338DED0A8BCDE90CABCDE90889C0
:102F600005F066FA002893D0304684F85C608FE75D
:102F700010000000010000004000000040000000C0
:102F80002DE9F043624CA3B00D46046001F094FEBD
:102F9000072800F0A980286823466968AA6807C343
:102FA0001E46AB8926F8043B3046257B677B05F03F
:102FB000B5F8E0B9574B012D4FF00108E0612361EE
:102FC00014BF4FF480134FF40003C4E9058893FA4B
:102FD000A3F3B3FA83F34FF48079013BC4F8249050
:102FE000C4E90B003046236205F02CF838B1012209
:102FF000134684F85C20184623B0BDE8F0836623AE
:103000000B90139041F2883206A90693CDE90C90FB
:10301000CDE90E00CDE91100304605F09DF80028FD
:10302000E5D1992341F2883206A93046069305F08E
:1030300093F80028DBD105231C9019906A4614935D
:103040004FF08073219014A91D9341F288339FEDB6
:103050002A7BCDE91A90CDE91F008DED007B9FED15
:10306000287B30468DED027B9FED277B8DED047B29
:1030700005F0DEF90028BAD129462046FFF748FEC0
:103080000028B4D12046FFF7CFFE03460028AED17A
:10309000002FB0D1189330460027002606AA14A9A5
:1030A000CDF86890CDE91F33EB2314934FF44063C0
:1030B0001B934FF4005317934FF440431C93A023EA
:1030C0001693062319934FF0805321934FF04073CA
:1030D000CDE906671D9305F023FA034600288AD040
:1030E000434684F85C8086E701230322184684F86F
:1030F0005C2023B0BDE8F083000000000100000068
:10310000100000000100000000000000000040006E
:10311000383C0124005000522DE9F04F8FB0414B54
:103120000024026800AF9A427C63C7E90944C7E9FA
:103130000B4403D03C37BD46BDE8F08F3A4B40F618
:1031400009213A48EB46D3F8D42007F11C0607F1D1
:10315000220A4FF0020942F480424FF00308C3F8FC
:10316000D420D3F8D42002F48042BA60BA68D3F8ED
:10317000E02042F04002C3F8E020D3F8E02002F063
:103180004002FA60FA68D3F8E02042F02002C3F867
:10319000E020D3F8E02002F020023A613A69D3F847
:1031A000E02042F01002C3F8E020D3F8E02002F063
:1031B00010027A617A69D3F8E02042F00202C3F883
:1031C000E020D3F8E030F86103F002033984BB61FA
:1031D000174B7B60BB697B6853F8040F7B6001F081
:1031E00005FF7B680546186801F008FF16F8013BEB
:1031F000786207F124012846C7F830807B63C7E96D
:103200000A9403F0BBF85645E5D100225C20114634
:1032100002F038F85C2002F073F83C37DD46BD461A
:10322000BDE8F08F00500052004402580A0A090914
:10323000943C0124114B02689A4200D07047104A16
:1032400070B5D2F8D4300F4C23F4804304F1180643
:10325000C2F8D43054F8040F01F0C8FE05462068C7
:1032600001F0CCFE0146284603F0C8F9B442F1D182
:103270005C20BDE8704002F051B800BF0050005221
:1032800000440258943C0124014805F0D5B900BF20
:10329000483C0124084B1A1D981D03F1080110B485
:1032A0009C1C9A6603F10A02C3E91834C3E91B01A6
:1032B0005DF8044B5A677047383C012438B5036801
:1032C00071B9026A00F1280500F5AC74012A0CBF3F
:1032D000002140218BBB1D4B5722C0F858310DE017
:1032E000426A00F1C00500F5E874012A0CBF002114
:1032F0004021EBB1164B5A22C0F8D03100232046B2
:10330000C4E901214FF480524FF48061636262612D
:103310004FF48042C4E903314FF48073C4E90623BB
:103320004FF40033236202F05FF958B1FFBEFEE7AD
:10333000084B5822C0F8D031E0E7074B5922C0F8BB
:103340005831DBE7C5E92044A56338BD10000240D1
:103350007000024028000240580002402DE9F0436E
:10336000821D05468BB0031D05F10A010830CDE929
:10337000052305F10C02AB69CDE907010992002B89
:103380003DD0EB69B3FA83F84FEA581801230222C3
:1033900005AE0AAF4FF006090393CDE9012356F8B5
:1033A000044B2B792278934216D02B68F3B1012B72
:1033B00002D1F2B10A230493204601F01FFE034616
:1033C0002046009301F012FE694602F0D7FFBE428C
:1033D000E5D10BB0BDE8F083697963789942E4D117
:1033E000B8F1000FF3D02B68002BE0D1CDF810908E
:1033F000E2E76378022B14BF0A230823DBE74FF0D0
:103400000108C3E7534A0368934230B505468BB0C1
:1034100055D02032934252D04F4A934204D02032AA
:10342000934201D00BB030BD4C4C4D48D4F8E03045
:1034300043F00103C4F8E030D4F8E03003F00103B6
:103440000593059BD4F8E03043F00803C4F8E0305E
:10345000D4F8E03003F008030693069BD4F8E0307C
:1034600043F04003C4F8E030D4F8E03003F0400308
:103470000793079BD4F8F03043F40003C4F8F0300E
:10348000D4F8F03003F400030893089BFFF766FFBD
:10349000D4F8D830296843F001032F4A3048C4F8E3
:1034A000D830891AD4F8D83018BF012103F00103AD
:1034B0000993099B0BB0BDE83040FFF7FFBE274CD6
:1034C0002848D4F8E03043F00103C4F8E030D4F8E1
:1034D000E03003F001030093009BD4F8E03043F0A8
:1034E0001003C4F8E030D4F8E03003F01003019387
:1034F000019BD4F8E03043F04003C4F8E030D4F846
:10350000E03003F040030293029BD4F8F03043F420
:103510008003C4F8F030D4F8F03003F48003039350
:10352000039BFFF71BFFD4F8D830296843F0010351
:10353000084A0C48C4F8D830891AD4F8D83018BFD3
:10354000012103F001030493049B0BB0BDE830405C
:10355000FFF7B4BE04580140045C01400044025827
:103560000C3F0124B03C0124014802F0B5BB00BF70
:10357000083E0124014802F0AFBB00BF803E012499
:10358000014802F0A9BB00BF64400124014802F0D9
:10359000A3BB00BFDC4001241A4A0368934210B465
:1035A0000BD02032934208D0174A934216D02032D3
:1035B000934213D05DF8044B7047144B0022D3F8AC
:1035C0005442C3F85822002CF4D0D3F84802D3E96F
:1035D000931223465DF8044B520818470B4B002208
:1035E000D3F8B044C3F8B424002CE3D0D3F8AC240F
:1035F000D3F8A814D3F8A404520823465DF8044B6A
:10360000184700BF04580140045C0140B03C01244D
:10361000184A0368934210B40BD02032934208D06A
:10362000154A934217D02032934214D05DF8044BD0
:103630007047124BD3E994245208C3F85822002C47
:10364000F4D0D3E99201234601EB820100EB820022
:103650005DF8044B1847094BD3F8AC24D3F8B044B9
:103660005208C3F8B424002CE0D0D3F8A814D3F83F
:10367000A404E8E704580140045C0140B03C012484
:103680002DE9F04F0C684FF41776754F87B004FBA7
:1036900006F6012C07EB060AC0F800A000F3A08094
:1036A0000D468E464FF00008D44669A3D3E90023A7
:1036B00069A1D1E90001CDE9022306ABCAF8508225
:1036C00003EB8403CDE9040153F810BC53F8083C24
:1036D000CAE992880193BEE80F00ACE80F00BEE88B
:1036E0000F00ACE80F00019B9EE80300CAF828B069
:1036F000CAF8C0308CE803002B69042B0CD8DFE833
:1037000003F0737D879103004FF41773554A03FB51
:1037100004739A64C3F8E020AA692B6A002A43D094
:10372000002B4FF4177308BF022203FB047318BF6A
:103730000322DA6201221A63EA696B6A002A40D125
:10374000191E4FF4177318BF012103FB0473C3E95B
:1037500031126B69022B05D8434A12F80380434AA1
:1037600052F823904FF4177306F128004246494659
:1037700003FB04740023384463646363E365C4F8A3
:10378000DC30C4F8CC30C4F8F430C4E90F33C4E9F9
:103790001533C4E93533C4E93B33022306F0EEFFA9
:1037A000002849D0FFBEFEE7191E4FF4177318BF5B
:1037B000012103FB0473C3E90B12EA696B6A002A57
:1037C000BED0002B4FF4177308BF022203FB047313
:1037D00018BF0322C3F8C4200122C3F8C820B8E7E9
:1037E000012007B0BDE8F08F4FF417734FF4FA5281
:1037F00003FB04739A64C3F8E0208DE74FF417735A
:103800004FF47A5203FB04739A64C3F8E02083E711
:103810004FF417734FF4FA4203FB04739A64C3F82E
:10382000E02079E74FF417734BF6803203FB047303
:103830009A64C3F8E0206FE706F1C0000223424615
:103840004946384406F09AFF0028CAD0FFBEFEE77A
:1038500004580140045C014024580140245C0140AC
:10386000B03C012400770100C00D0108C40D01081F
:103870000068704770B5046882B015460E46C4F8FB
:103880005032C4E99212069AC4F85422A269012A5D
:1038900026D0626A012A9AB211D0294604F1C000EA
:1038A000019207F027F8236A019A012B10D02946CC
:1038B00004F1280007F01EF8002002B070BD04F1EA
:1038C000C000019207F0A8F8236A019A012BEED1FB
:1038D000314604F1280007F09FF8002002B070BDC7
:1038E000226A012A9AB211D0294604F128000192D5
:1038F00007F000F8636A019A012B10D0294604F101
:10390000C00006F0F7FF002002B070BD04F12800EF
:10391000019207F081F8636A019A012BEED13146DA
:1039200004F1C00007F078F8002002B070BD00BFBD
:1039300003681B69042B05D8044A02EB830393ED4B
:10394000000A70479FED020A704700BFD00D0108C2
:1039500000803B470368D3F858027047F0B5002356
:1039600087B0022204460493CDE9022390F8202276
:10397000D0F824320B2A4FEA430525D194F82222AD
:103980000B2A02D1002007B0F0BD49496B1C494801
:1039900051F8233045780178187894F823628842EA
:1039A0006AD0824278D0D87803F1030C81426FD07C
:1039B000824279D0987903F1060C884270D0824215
:1039C00033D0012007B0F0BD394B3A4853F82530C9
:1039D00001784678187894F821C281423ED082421C
:1039E00042D0D87803F1030E814241D082424BD0BD
:1039F000987903F1060E884242D08242E1D1DB7908
:103A00006345DED1734604F508769B78304605930E
:103A100001F0ECFA034630461E4601F0EFFA01A928
:103A20000190304602F0AAFCA8E7DB79B342C8D186
:103A3000634604F222249B782046059301F0D6FACF
:103A4000034620461C4601F0D9FA034601A9204648
:103A5000019302F093FC002007B0F0BD93F801E061
:103A6000B645BED08242BCD158786045B9D1CAE7CC
:103A70001F79B742BAD1BBE75F78AF4291D192E7E5
:103A8000D979B142B9D19CE718796045B0D1B9E78D
:103A90001F79AF428CD18DE75878B04283D1C8E707
:103AA000D979A9428BD18CE71879B04282D1BFE78E
:103AB0006800002464000024826F12682DE9F04140
:103AC0005268C0B0D0E94234591E9A1A1C1B0A40F1
:103AD0001444B4FBF3F103FB1144A34248D3D0F8E0
:103AE00010610546D6F80031D6F80411013B5B1A87
:103AF000D6F80411DBB2A34294BFC9180919C6F85D
:103B00000411D6F80431B3F5807F05D9D6F8043115
:103B1000A3F58073C6F80431C5F80C21D6F800214E
:103B2000A718B7F5807F24D9C2F58078B118D2F5EF
:103B3000807223D1444502D0B4EB080222D1FFB2F7
:103B400005F58C78C6F80071D5F81C022618B6F574
:103B5000807F8CBFC0F580772746CFB9BC4201D0AB
:103B6000E21B1BD1F6B2C5F81C6240B0BDE8F08183
:103B7000FEE7B1182246002CE1D0A04668460CF0C2
:103B80000BFCD7E70DEB080031460CF005FCD6E73F
:103B900040443A4669460CF0FFFBDFE70DEB0701B6
:103BA000F6B240460CF0F8FBC5F81C6240B0BDE828
:103BB000F08100BF204A0368934225D0A2F54C4211
:103BC000934228D002F58062934226D002F58062AB
:103BD000934224D002F58062934222D002F54442FF
:103BE000934220D0A2F51C4293421ED002F580627F
:103BF00093421CD0114A93421BD00020DB69DB06A4
:103C000000D47047FFF758BF00224FF40F710C48E3
:103C100001FB0200F2E70122F7E70222F5E70322A7
:103C2000F3E70422F1E70522EFE70622EDE707229A
:103C3000EBE70822E9E700BF00100140000C005844
:103C400068410124214A0368D0F88810934228D0A3
:103C5000A2F54C42934226D002F58062934224D0D2
:103C600002F58062934222D002F58062934220D016
:103C700002F5444293421ED0A2F51C4293421CD04E
:103C800002F5806293421AD0114A934219D1082258
:103C9000104B4FF40F70002100FB023383F8141116
:103CA00070470022F4E70122F2E70222F0E7032244
:103CB000EEE70422ECE70522EAE70622E8E707221E
:103CC000E6E7002383F81431FFDE00BF0010014057
:103CD000000C0058684101249C4A036893422DE976
:103CE000F04104468EB000F0F380A2F54C429342BE
:103CF00000F0F08002F58062934200F0EF8002F560
:103D00008062934200F0E88002F58062934200F006
:103D1000E78002F54442934200F0E480A2F51C42A1
:103D2000934200F00C8102F58062934200F005811D
:103D3000874A934240F0058108264FF40F78854F5B
:103D400008FB06F807EB080595F8220201F05EF97A
:103D500095F8200201F05AF9D5F82432082B13D82F
:103D6000DFE803F029374553616F7D8B05007A4BFF
:103D7000D3F8F42042F00802C3F8F420D3F8F4306A
:103D800003F008030893089B2846FFF7E7FD012886
:103D90000FD04FF40F756D4A06FB05F57B597E1960
:103DA000934278D01A6842F010021A600EB0BDE853
:103DB000F081FFBEFEE7684BD3F8F02042F010021E
:103DC000C3F8F020D3F8F03003F010030093009B09
:103DD000DAE7614BD3F8E82042F40032C3F8E82078
:103DE000D3F8E83003F400330193019BCCE75A4B3E
:103DF000D3F8E82042F48022C3F8E820D3F8E83072
:103E000003F480230293029BBEE7534BD3F8E820D0
:103E100042F40022C3F8E820D3F8E83003F400238A
:103E20000393039BB0E74C4BD3F8E82042F4801295
:103E3000C3F8E820D3F8E83003F480130493049B1C
:103E4000A2E7454BD3F8F02042F02002C3F8F0205F
:103E5000D3F8F03003F020030593059B94E73E4B25
:103E6000D3F8E82042F08042C3F8E820D3F8E830E5
:103E700003F080430693069B86E7374BD3F8E82090
:103E800042F00042C3F8E820D3F8E83003F00043E2
:103E90000793079B78E70023304A08F18C08C6E9AE
:103EA0002533C6E92833C6E92B332923B844C6E9AC
:103EB00023234FF480634046C6F89C304FF4807350
:103EC000C6F8A83001F090FB844668B1FFBEFEE75B
:103ED000002632E7012630E703262EE702262CE7EC
:103EE00004262AE7052628E7C4F878800EA9D6F824
:103EF0008C20D6F82432DFF868E001EB4308136821
:103F0000C6F8C44009AC23F008031360BEE80F00F4
:103F10000FC4DEF8003062466146238038F9140C85
:103F200001F0B0F9D6F824320EAA02EB430333F9BC
:103F3000140C01F0E5F97B5934E70726FDE6062667
:103F4000FBE6002393F82232FFDE00BF00100140A1
:103F5000000C0058684101240044025888000240C7
:103F6000080D010810B5264C204606F083FF236893
:103F7000DA69D10600D410BD224A93422FD0A2F5AF
:103F80004C4293422DD002F5806293422BD002F531
:103F90008062934229D002F58062934227D002F5D5
:103FA0004442934225D0A2F51C42934223D002F50D
:103FB0008062934221D0144A93420AD00020DA69E9
:103FC000D20602D410221A6210BDFFF775FD2368D5
:103FD000F8E708204FF40F7202FB0040EFE70020E3
:103FE000F8E70120F6E70220F4E70320F2E70420D7
:103FF000F0E70520EEE70620ECE70720EAE700BF40
:104000006841012400100140000C005810B5274CF5
:1040100004F50F7006F02EFFD4F83C32DA69D106B1
:1040200000D410BD224A934230D0A2F54C429342B4
:104030002ED002F5806293422CD002F5806293422A
:104040002AD002F58062934228D002F5444293427E
:1040500026D0A2F51C42934224D002F580629342FE
:1040600022D0144A93420BD00020DA69D20602D43F
:1040700010221A6210BDFFF71FFDD4F83C32F7E79B
:1040800008204FF40F7202FB0040EEE70020F8E733
:104090000120F6E70220F4E70320F2E70420F0E72E
:1040A0000520EEE70620ECE70720EAE76841012457
:1040B00000100140000C005810B5274C04F58F602B
:1040C00006F0D8FED4F87834DA69D10600D410BDF1
:1040D000224A934230D0A2F54C4293422ED002F5B0
:1040E000806293422CD002F5806293422AD002F57E
:1040F0008062934228D002F54442934226D0A2F532
:104100001C42934224D002F58062934222D0144A8A
:1041100093420BD00020DA69D20602D410221A6230
:1041200010BDFFF7C9FCD4F87834F7E708204FF446
:104130000F7202FB0040EEE70020F8E70120F6E7EF
:104140000220F4E70320F2E70420F0E70520EEE781
:104150000620ECE70720EAE768410124001001404F
:10416000000C005810B5274C04F2B46006F082FE33
:10417000D4F8B436DA69D10600D410BD224A93428D
:1041800030D0A2F54C4293422ED002F58062934289
:104190002CD002F5806293422AD002F580629342CD
:1041A00028D002F54442934226D0A2F51C42934205
:1041B00024D002F58062934222D0144A93420BD05D
:1041C0000020DA69D20602D410221A6210BDFFF76D
:1041D00073FCD4F8B436F7E708204FF40F7202FBF3
:1041E0000040EEE70020F8E70120F6E70220F4E7C0
:1041F0000320F2E70420F0E70520EEE70620ECE7D5
:104200000720EAE76841012400100140000C005833
:1042100010B5274C04F50F6006F02CFED4F8F038EA
:10422000DA69D10600D410BD224A934230D0A2F5FB
:104230004C4293422ED002F5806293422CD002F57C
:10424000806293422AD002F58062934228D002F520
:104250004442934226D0A2F51C42934224D002F558
:104260008062934222D0144A93420BD00020DA6934
:10427000D20602D410221A6210BDFFF71DFCD4F83A
:10428000F038F7E708204FF40F7202FB0040EEE72A
:104290000020F8E70120F6E70220F4E70320F2E728
:1042A0000420F0E70520EEE70620ECE70720EAE728
:1042B0006841012400100140000C005810B5274C43
:1042C00004F62C3006F0D6FDD4F82C3BDA69D10682
:1042D00000D410BD224A934230D0A2F54C42934202
:1042E0002ED002F5806293422CD002F58062934278
:1042F0002AD002F58062934228D002F544429342CC
:1043000026D0A2F51C42934224D002F5806293424B
:1043100022D0144A93420BD00020DA69D20602D48C
:1043200010221A6210BDFFF7C7FBD4F82C3BF7E749
:1043300008204FF40F7202FB0040EEE70020F8E780
:104340000120F6E70220F4E70320F2E70420F0E77B
:104350000520EEE70620ECE70720EAE768410124A4
:1043600000100140000C005810B5274C04F66850AE
:1043700006F080FDD4F8683DDA69D10600D410BD9E
:10438000224A934230D0A2F54C4293422ED002F5FD
:10439000806293422CD002F5806293422AD002F5CB
:1043A0008062934228D002F54442934226D0A2F57F
:1043B0001C42934224D002F58062934222D0144AD8
:1043C00093420BD00020DA69D20602D410221A627E
:1043D00010BDFFF771FBD4F8683DF7E708204FF4F4
:1043E0000F7202FB0040EEE70020F8E70120F6E73D
:1043F0000220F4E70320F2E70420F0E70520EEE7CF
:104400000620ECE70720EAE768410124001001409C
:10441000000C005810B5274C04F6A47006F02AFDD5
:10442000D4F8A43FDA69D10600D410BD224A9342E1
:1044300030D0A2F54C4293422ED002F580629342D6
:104440002CD002F5806293422AD002F5806293421A
:1044500028D002F54442934226D0A2F51C42934252
:1044600024D002F58062934222D0144A93420BD0AA
:104470000020DA69D20602D410221A6210BDFFF7BA
:104480001BFBD4F8A43FF7E708204FF40F7202FBA0
:104490000040EEE70020F8E70120F6E70220F4E70D
:1044A0000320F2E70420F0E70520EEE70620ECE722
:1044B0000720EAE76841012400100140000C005881
:1044C00010B5284C04F5F07006F0D4FCD4F8E031B7
:1044D000DA69D10600D410BD234A934231D0A2F547
:1044E0004C4293422FD002F5806293422DD002F5C8
:1044F000806293422BD002F58062934229D002F56C
:104500004442934227D0A2F51C42934225D002F5A3
:104510008062934223D0154A93420BD00020DA697F
:10452000D20602D410221A6210BDFFF7C5FAD4F8E1
:10453000E031F7E708224FF40F710D4801FB02004C
:10454000EDE70022F7E70122F5E70222F3E7032275
:10455000F1E70422EFE70522EDE70622EBE7072269
:10456000E9E700BF6851012400100140000C005829
:1045700068410124014801F0AFBB00BFF4410124B0
:104580002DE9F0414FF40F73D1F80480374E8E4679
:1045900003FB08F70C46B8F1080F07EB06050560AA
:1045A00005F5087CBEE80F00ACE80F009EE80700A8
:1045B0008CE8070003D8D5F82C32022B02D9012051
:1045C000BDE8F081D5F82822032AF8D8D5F83012B2
:1045D0000229F4D8D5F834C2BCF1020FEFD801316A
:1045E0002348890050F82800B851A0696961214921
:1045F0006860284651F823302B611F4B53F8223056
:10460000EB601E4B53F82C30AB600023C5E906333A
:10461000C5E90833AB6208F015F80028CFD1014690
:10462000284608F067F80028C9D10146284608F056
:10463000B3F80028C3D1284608F03EF80246002807
:10464000BDD10F494FF48070F319C1F80421C5F8AA
:1046500008011046C1F80021C5F81011A3F8142173
:10466000C5F81C22C5F81822AAE700BF684101243A
:10467000E40D0108080E0108140E0108240E0108BB
:104680000040003010B50468B4F808212046D4F882
:10469000101106F037FB20B194F8140180F00100EE
:1046A00010BD012384F8143110BD00BF0346002063
:1046B0001B68D3F81822C3F81C2270470268D2F88E
:1046C0001C32D2F818125B1ADBB2002BF7D0D2F8EA
:1046D0001832D1180133DBB291F81801C2F8183240
:1046E000704700BF0368D3F81C02D3F81832C01A11
:1046F000C0B27047564B012200204FF4965103F58B
:10470000805C30B4C3E98A20C3E98D21CCE97320F1
:10471000C3F86424C3F86804C3F87024C3F874149D
:10472000C3F8A026C3F8A406C3F8AC26C3F8B01695
:10473000C3F8DC28C3F8E008C3F8E828C3F8EC188D
:10474000C3F8182BC3F81C0BC3F8242BC3F8281B81
:10475000C3F8542DC3F8580DC3F8602DC3F8641D79
:10476000C3F8902FC3F8940FC3F89C2FC3F8A01F71
:10477000384C394DCCE97621CCF80C043748CCF8CC
:1047800008248378CCF8142402880068CCF8181424
:1047900033494FEA104CE280A1F803204B71CA80E4
:1047A0000B7230492372A1F803202F4C4B71CA8041
:1047B0000B722E49E2802372A1F80320A4F8032093
:1047C00063714B712A4CCA800B722A49EA800880B7
:1047D0002B72E280237281F802C0A1F803204B7192
:1047E000CA800B722449A1F803204B71CA800B7256
:1047F0002249A1F803204B71CA800B72204908801E
:1048000081F802C0A1F803204B71CA800B721D49C8
:10481000088081F802C0A1F803204B71CA800B7296
:104820001949088081F802C01848A1F803204B718B
:10483000CA800B721649A0F803204371C28003722C
:10484000A1F803204B71CA800B7230BC704700BFC7
:1048500068410124F8000024EC00002464000024D6
:104860001001002428010024040100241C0100245C
:10487000D4000024A855012434010024E0000024C1
:10488000845501249C55012490550124580000248E
:104890004C00002408B500F0B9FCBDE8084000F069
:1048A000B9BD00BF064808B503680BB101F078FF39
:1048B000044803681BB1BDE8084002F067BE08BDAC
:1048C000C85D0124C0590124064808B503680BB12E
:1048D00001F066FF044803681BB1BDE8084002F020
:1048E00055BE08BDC85D0124C0590124064808B55D
:1048F00003680BB101F054FF044803681BB1BDE825
:10490000084002F043BE08BDC85D0124C05901241F
:10491000364BDA6A520062D59A6A9A6A9A6A9B6A38
:10492000180600D500BE314B9B6A990600D500BE23
:104930002E4B9B6ADA0600D500BE2C4B9B6A1B07E8
:1049400000D500BE294B9B6A980700D500BE274BB7
:104950009B6AD90700D500BE244B9B6A1A0400D578
:1049600000BE224B9B6A9B0400D500BE1F4B9B6A76
:10497000D80400D500BE1D4B9B6A190500D500BEAA
:104980001A4B9B6A5A0500D500BE184B9B6A9B05C3
:1049900000D500BE154B9B6AD80500D500BE134B51
:1049A0009B6A990100D500BE104B9B6ADA0100D5C5
:1049B00000BE0E4B9B6A1B0300D500BE0B4B9B6ACF
:1049C000580300D500BE094B9B6A990300D500BE71
:1049D000064B9B6ADA0306D400BE00BEFEE7DB6A24
:1049E0009B07FAD5F8E700BEF6E700BF00ED00E050
:1049F00000F01EBC2DE9F041CEB004464C2200214F
:104A00000AA80BF0F1FC2022002102A80BF0ECFC1C
:104A1000BC2200211EA80BF0E7FC022003F02AFABA
:104A20002368012B4FF0000354D0534A0225019311
:104A3000C820D16A514B21F00101D162D26A02F043
:104A4000010201929A6942F440429A619B6903F41F
:104A500040430193019B494A93699B04FCD5484913
:104A60000224002201268B6A04274FF0080823F055
:104A7000030323438B62052316900AA818934FF46F
:104A800080331096179419941597CDF86880CDE966
:104A90001B222122CDE91344CDE90A2303F0D4FEE1
:104AA00000B1FEE73F220323294602A8CDE90223F5
:104AB00000220823CDE9042340224023CDE9062328
:104AC00040234FF48062CDE9082304F0EBF903465C
:104AD000B8B1FEE7294A04250093F0209169264BDE
:104AE00041F440419161926902F440420092DA6AD5
:104AF00042F00102DA62DB6A03F001030093009BDB
:104B0000A9E720224FF4805125934FF440152B92B2
:104B100080222D931EA83093269135914FF48071F9
:104B2000249234920C223394439140F22711209224
:104B30001022CDF884802A971F96CDE92E34CDE936
:104B40003B334FF48033CDE9224631930024469322
:104B50000623CDE93E4527934FF48063094C2C93FF
:104B60001E94CDE9281204F0F9FB00B1FEE703F032
:104B7000A7F94EB0BDE8F081000400580048025883
:104B8000004402580F130F032DE9F0410D4604466F
:104B900084B0D1E9000184E8030000F007FBAE799E
:104BA0007EB36F4609F0CAFFFDF73AFF09F016FC25
:104BB0002B79002B4ED16B799BB1BFF34F8FBFF395
:104BC0006F8F394B0022C3F85022BFF34F8FBFF3D2
:104BD0006F8F5A6942F400325A61BFF34F8FBFF3AF
:104BE0006F8F0022002339463048CDE9002309F0B9
:104BF00039FF2E4809F098FF09F020F804B0BDE80D
:104C0000F08120466F46FFF7F5FE012400F0B0FB6F
:104C10004FF040534FF4807838460193244BADF861
:104C20000040CDE9023800F0C1FB19224FF04043AB
:104C300038468DF80F40ADF80D808DF801408DF8A5
:104C40000A608DF80820019300F0B0FB042000F00A
:104C50009DFBA7E7144C0023C4F88430BFF34F8FAB
:104C6000D4F8803043F6E07EC3F3C906C3F34E3375
:104C70004FEA431C0CEA0E00334640EA8372013BC4
:104C8000C4F860225A1CF8D1ACF1200C1CF1200FA2
:104C9000F0D1BFF34F8F636943F480336361BFF397
:104CA0004F8FBFF36F8F86E700ED00E0B45501240E
:104CB0000E00010304F026BA1C4B9B6803F17842F6
:104CC000B2F5003F25D3B3F5803F20D303F1604216
:104CD000B2F5003F1FD303F15C42B2F5002F1CD3A5
:104CE00003F17042B2F5902F19D303F14842B2F5A7
:104CF000803F16D303F18042B2F1806F13D303F1EA
:104D0000E043B3F5000F2CBF0820072070470120B7
:104D1000704700207047022070470320704704202E
:104D20007047052070470620704700BF00ED00E087
:104D300003480023034A044903600BF015B800BF81
:104D4000B455012400000024ED06000810B4204CE6
:104D50000022204B83B0D4F888101F4841F4700122
:104D6000C4F8881019681D4C41F0010119601A61DE
:104D7000196808401A4918609A61DA611A629A62E1
:104D8000DA621A635A639A63DA631A645A641868B7
:104D900020F4802018601A66D3F8DC2042F06042CC
:104DA000C3F8DC20D3F8DC300193019B2368194061
:104DB000B1F1005F03D20B4B0122C3F80821044B71
:104DC0004FF000629A6003B05DF8044B704700BF7B
:104DD00000ED00E0004402587FEDF6EA0010005CB0
:104DE0000000FFFF0080005110B5094CD4F890324C
:104DF000D3F814320BB1012010BD0A4601462046FB
:104E000008F0CEFA2046BDE8104008F0D3BA00BF43
:104E10003836012400F57171D0F8040408F0F6BAB0
:104E2000C1EBC10300EB8303D0F80404D3F80822DC
:104E300008F01ABBC1EBC10300EB8303D0F80404F4
:104E40009A6C08F04FBB00BFD0F8040408F0EEBB2A
:104E5000C16810B5044619B1022900D0FEE701214E
:104E6000D4F8040408F0CCFBD4F80404BDE81040E6
:104E700008F09EBB10B50446D0F8040408F0C4FB4B
:104E80002268D2F8003E43F00103C2F8003E236AD4
:104E900023B1034A136943F00603136110BD00BF39
:104EA00000ED00E0D0F8040408F0B8BBD0F804042A
:104EB00008F0CCBBD0F8040408F0C6BBD0F804045A
:104EC00008F0C6BBD0F8040408F0C4BB9446D0F880
:104ED00098021A4608B5634602F0BCFE032802D8C1
:104EE000024B185C08BD022008BD00BF400E01083F
:104EF000D0F8980208B502F03BFF032802D8024B15
:104F0000185C08BD022008BD400E0108D0F89802C8
:104F100008B502F071FF032802D8024B185C08BDE7
:104F2000022008BD400E01080A06D0F8983206D4C7
:104F3000C1EBC10103EB810191F8FE01704701F063
:104F40007F01C1EBC10103EB810191F83E00704785
:104F5000D0F8980208B502F067FE032802D8024B89
:104F6000185C08BD022008BD400E0108D0F8980268
:104F700008B502F0D5FE032802D8024B185C08BD24
:104F8000022008BD400E0108D0F8980208B502F0D2
:104F90009FFE032802D8024B185C08BD022008BD02
:104FA000400E0108D0F8C00208F002BED0F8C002DE
:104FB00008F016BED0F8C00208F01EBE704700BF51
:104FC000D0F8C00208F004BED0F8C00208F004BE59
:104FD000D0F8D00308B501F0A3FF032802D8024B94
:104FE000185C08BD022008BD440E0108024B02787F
:104FF00053F82200704700BF680E0108024B427848
:1050000033F81200704700BF480E01088CB00A2820
:1050100014D8DFE800F01523313F4D5B69778593A5
:1050200006004D4BD3F8E02042F48062C3F8E02044
:10503000D3F8E03003F480630B930B9B0CB0704704
:10504000454BD3F8E02042F00102C3F8E020D3F84A
:10505000E03003F001030193019BEFE73E4BD3F8EF
:10506000E02042F00202C3F8E020D3F8E03003F081
:1050700002030293029BE1E7374BD3F8E02042F0B2
:105080000402C3F8E020D3F8E03003F004030393F4
:10509000039BD3E7304BD3F8E02042F00802C3F87B
:1050A000E020D3F8E03003F008030493049BC5E745
:1050B000294BD3F8E02042F01002C3F8E020D3F8E7
:1050C000E03003F010030593059BB7E7224BD3F8BC
:1050D000E02042F02002C3F8E020D3F8E03003F0F3
:1050E00020030693069BA9E71B4BD3F8E02042F070
:1050F0004002C3F8E020D3F8E03003F04003079308
:10510000079B9BE7144BD3F8E02042F08002C3F8E2
:10511000E020D3F8E03003F080030893089B8DE78C
:105120000D4BD3F8E02042F48072C3F8E020D3F8AE
:10513000E03003F480730993099B7FE7064BD3F8B3
:10514000E02042F40072C3F8E020D3F8E03003F42A
:1051500000730A930A9B71E700440258704700BF2E
:105160000F4B1B780BB90120704710B504464FF464
:105170007A700C4AB0FBF3F31068B0FBF3F000F068
:10518000E1F80F2C00D808B1012010BD0022214603
:105190004FF0FF3000F076F8034B00201C6010BD8C
:1051A00048010024400100244C01002438B50320AC
:1051B000124D00F055F8124C03F0D4FD114A12497B
:1051C0009369C3F30323CB5C03F01F0320FA03F3BB
:1051D0000F202B60926902F00F028A5C02F01F021E
:1051E000D3402360FFF7BCFF10B10124204638BD37
:1051F0000446FFF7B3FF204638BD00BF400100243E
:105200004401002400440258300E0108034A044BB4
:1052100011681B780B441360704700BF8C60012439
:1052200048010024014B1868704700BF8C600124BE
:1052300038B50446FFF7F6FF0546631C02D0044B61
:105240001B781C44FFF7EEFF431BA342FAD338BD83
:1052500048010024014B1868000C70470010005CE6
:1052600006494FF6FF0C0002054BCA6800F4E060E7
:1052700002EA0C0210430343CB60704700ED00E0EC
:105280000000FA051B4BDB68C3F3022300B5C3F132
:10529000070E03F1040CBEF1040F28BF4FF0040EFB
:1052A000BCF1060F1AD9033B4FF0FF3C0CFA03FC8C
:1052B00022EA0C024FF0FF3C00280CFA0EFC21EA17
:1052C0000C0101FA03F141EA02010ADB09010A4B70
:1052D000C9B2034483F800135DF804FB00221346AF
:1052E000E8E700F00F000901044BC9B20344197646
:1052F0005DF804FB00ED00E000E100E0FCEC00E004
:10530000002807DB00F01F0101234009024A8B40FF
:1053100042F82030704700BF00E100E000280DDBBC
:105320004309012200F01F000549203302FA00F072
:1053300041F82300BFF34F8FBFF36F8F704700BF5B
:1053400000E100E0431EB3F1807F0CD24FF0E02279
:10535000002006494FF0F00C5361072381F823C069
:105360009061136170470120704700BF00ED00E0BD
:10537000BFF35F8F044B00215A6A22F480325A62D5
:10538000C3F89410704700BF00ED00E0064B40F0FA
:105390000100C3F894005A6A42F480325A62BFF3A3
:1053A0004F8FBFF36F8F704700ED00E0174A4378CF
:1053B000C2F89830017821B3436800B5C2F89C3038
:1053C000C37A90F80CC01B0690F80FE043EA0C7308
:1053D00090F80AC00B43817B43EACC4390F80DC0A0
:1053E00043EA8C4390F809C043EA4143017A43EA17
:1053F0000E4343EA0C2343EA4103C2F8A0305DF8B0
:1054000004FBC2F89C10C2F8A010704700ED00E049
:10541000704700BF08B5FFF7FBFF08BD0268344BBB
:10542000344930B4344D354CAA4218BF9A420CBFAF
:10543000012300238A4208BF43F001033031A24216
:1054400008BF43F0010330348A4208BF43F0010330
:105450003031A24208BF43F0010330348A4208BF12
:1054600043F0010301F55C71A24208BF43F0010360
:1054700004F55C748A4208BF43F001033031A24254
:1054800008BF43F0010330348A4208BF43F00103F0
:105490003031A24208BF43F0010330348A4208BFD2
:1054A00043F001033031A24208BF43F001038A42B6
:1054B00008BF43F0010313B9114B9A4213D1D3B281
:1054C0001049114C103BA1FB03515F2B0F4BC1F353
:1054D000021103EA0203615C88BF0433C16583657E
:1054E000184630BC704722F0FF038365F8E700BF21
:1054F00010000240400002402800024058000240D4
:10550000B8040240ABAAAAAA980E010800FCFFFF4B
:105510000368294A294930B4294D2A4CAB4218BFA7
:1055200093420CBF012200228B4208BF42F00102CD
:105530002831A34208BF42F0010228348B4208BF41
:1055400042F001022831A34208BF42F001028B421F
:1055500008BF42F0010212B91B4A934213D1DBB2D9
:105560001A4C1B4A0121083B1A4DA4FB0343456614
:1055700002EB1312C3F30413920001FA03F3026661
:10558000836630BC7047DAB21349144C1944103AA0
:10559000A829A4FB02234FEA131300D80833104AAA
:1055A00003F01F0501210F4C1A44A94044669200E4
:1055B00081660266E5E700BF08540258305402587D
:1055C0001C5402584454025894540258CDCCCCCCAC
:1055D0000096001680580258F0FBFDBFABAAAAAA9D
:1055E000008200108008024070B50446FFF71AFEE2
:1055F000002C00F0C68023680546954A934248D0A7
:105600001832934245D0303292498B4218BF9342B0
:1056100001F130010CBF012200228B4208BF42F091
:10562000010218318B4208BF42F0010218318B424F
:1056300008BF42F0010218318B4208BF42F001025C
:1056400001F556718B4208BF42F0010218318B42BE
:1056500008BF42F0010218318B4208BF42F001023C
:1056600018318B4208BF42F0010218318B4208BF4B
:1056700042F0010218318B4208BF42F0010218319A
:105680008B4208BF42F001021AB9734A934240F0BC
:10569000F5800222002184F8352084F834101A683D
:1056A00022F001021A6005E0FFF7BCFD431B052B49
:1056B00040D823681A68D107F6D4D4E902252169B5
:1056C0002A43A0691D680A4361690A43E1690243EC
:1056D0000A4362492940256A2A430A43616A042928
:1056E0002FD01A605A6922F00702114359612046EF
:1056F000FFF794FEE26D3F2302F01F0293408360A8
:105700002046FFF705FFA368802B3CD06368A06E9E
:10571000DAB2013BD4E91851072B2A60486026D938
:105720000023C4E91B33636700200123606584F80C
:10573000353070BD202203230120626584F83530A6
:1057400070BDD4E90B5129430A431A605969A26A12
:1057500021F00701114341F00401002DC6D00028BB
:105760004FD1012A6ED032F00202BFD151E0501E5B
:10577000072810D9626FD4E91B31002018604A60F5
:10578000D2E7012070BD0023A16ED4E91802636046
:1057900003605160C4E72168314B324DA94218BF04
:1057A000994205F114050CBF01230023A94208BF4B
:1057B00043F001031435A94208BF43F00103143537
:1057C000A94208BF43F001031435A94208BF43F0C2
:1057D00001031435A94208BF43F001033BB9224B32
:1057E000994204D0214B224913449B0003E0214BF2
:1057F000214913449B0001228240C4E91B316267A6
:10580000BBE7B0F5005F0ED0022A05D9032A7FF46A
:105810006DAFEA017FF56AAF012340221846626549
:1058200084F8353070BD032A3FF660AF01A050F810
:1058300022F000BF19580008135800081958000832
:1058400045580008B5F1C07F7FF450AFE4E700BFD2
:105850001000024040000240B80402403F8010FEA9
:10586000085402581C540258945402583F820010A5
:10587000400902403F96001640590258324A3348C8
:105880003349834218BF934200F128000CBF012224
:1058900000228B4208BF42F001022831834208BF38
:1058A00042F0010228308B4208BF42F00102283149
:1058B000834208BF42F001028B4208BF42F001025E
:1058C00012B9244A934238D102220021224D84F891
:1058D000341084F835201A681540A268402A2AD06E
:1058E000802A0CBF4FF480400846266AD4E9031290
:1058F000D20842EAD102616942EAD102A16942EAD0
:10590000D102E16942EAD102144942EA161219446D
:105910002A4302431248A0FB010120461A600B09EA
:105920009B00E365FFF77AFDE26D012302F01F02A1
:1059300093404360E4E61020D7E740220323012090
:10594000626584F8353070BD085402581C54025802
:1059500030540258945402580F00FEFFF8ABFDA7D4
:10596000CDCCCCCC002800F0BC80844690F834002C
:10597000012800F0B88001202DE9F0419CF8354065
:105980008CF83400844208D000224FF400638CF875
:105990003420CCF85430BDE8F0810220DCF800500F
:1059A0007A4C8CF835000020794ECCF854007948B8
:1059B000854218BFA54200F118000CBF0124002445
:1059C000854208BF44F001041830854208BF44F006
:1059D00001041830854208BF44F0010418308542A4
:1059E00008BF44F0010400F55670854208BF44F03A
:1059F00001041830854208BF44F001041830854284
:105A000008BF44F001041830854208BF44F0010487
:105A10001830854208BF44F001041830854208BFA1
:105A200044F001041830854208BF44F001041830E6
:105A3000854208BF44F00104A0F59560B54218BF47
:105A40008542DCF86C600CBF0120002054EA00089D
:105A5000286820F001002860DCF86400DCF8684069
:105A6000DCF85870446040D016B1DCE91C04446096
:105A7000DCF85C004FF03F0E00F01F000EFA00F063
:105A8000B860286820F4802028606B60DCF808305B
:105A9000402B23D0A960EA602B6823F01E0343F05B
:105AA00016032B60DCF840301BB12B6843F0080371
:105AB0002B60DCF860301A68D20303D51A6842F410
:105AC00080721A601EB1336843F4807333602B68B0
:105AD000002043F001032B60BDE8F081AA60E9607B
